{
  "_format": "hh-sol-artifact-1",
  "contractName": "SEVEToken",
  "sourceName": "contracts/SEVEToken.sol",
  "abi": [
    {
      "inputs": [],
      "stateMutability": "nonpayable",
      "type": "constructor"
    },
    {
      "anonymous": false,
      "inputs": [
        {
          "indexed": true,
          "internalType": "address",
          "name": "owner",
          "type": "address"
        },
        {
          "indexed": true,
          "internalType": "address",
          "name": "spender",
          "type": "address"
        },
        {
          "indexed": false,
          "internalType": "uint256",
          "name": "value",
          "type": "uint256"
        }
      ],
      "name": "Approval",
      "type": "event"
    },
    {
      "anonymous": false,
      "inputs": [
        {
          "indexed": true,
          "internalType": "address",
          "name": "user",
          "type": "address"
        },
        {
          "indexed": false,
          "internalType": "uint256",
          "name": "amount",
          "type": "uint256"
        }
      ],
      "name": "GovernanceStaked",
      "type": "event"
    },
    {
      "anonymous": false,
      "inputs": [
        {
          "indexed": true,
          "internalType": "address",
          "name": "user",
          "type": "address"
        },
        {
          "indexed": false,
          "internalType": "uint256",
          "name": "amount",
          "type": "uint256"
        },
        {
          "indexed": false,
          "internalType": "uint256",
          "name": "reward",
          "type": "uint256"
        }
      ],
      "name": "GovernanceUnstaked",
      "type": "event"
    },
    {
      "anonymous": false,
      "inputs": [
        {
          "indexed": true,
          "internalType": "address",
          "name": "previousOwner",
          "type": "address"
        },
        {
          "indexed": true,
          "internalType": "address",
          "name": "newOwner",
          "type": "address"
        }
      ],
      "name": "OwnershipTransferred",
      "type": "event"
    },
    {
      "anonymous": false,
      "inputs": [
        {
          "indexed": false,
          "internalType": "address",
          "name": "account",
          "type": "address"
        }
      ],
      "name": "Paused",
      "type": "event"
    },
    {
      "anonymous": false,
      "inputs": [
        {
          "indexed": true,
          "internalType": "address",
          "name": "user",
          "type": "address"
        },
        {
          "indexed": false,
          "internalType": "uint256",
          "name": "amount",
          "type": "uint256"
        },
        {
          "indexed": false,
          "internalType": "uint256",
          "name": "timestamp",
          "type": "uint256"
        }
      ],
      "name": "TokensStaked",
      "type": "event"
    },
    {
      "anonymous": false,
      "inputs": [
        {
          "indexed": true,
          "internalType": "address",
          "name": "user",
          "type": "address"
        },
        {
          "indexed": false,
          "internalType": "uint256",
          "name": "amount",
          "type": "uint256"
        },
        {
          "indexed": false,
          "internalType": "uint256",
          "name": "reward",
          "type": "uint256"
        }
      ],
      "name": "TokensUnstaked",
      "type": "event"
    },
    {
      "anonymous": false,
      "inputs": [
        {
          "indexed": true,
          "internalType": "address",
          "name": "from",
          "type": "address"
        },
        {
          "indexed": true,
          "internalType": "address",
          "name": "to",
          "type": "address"
        },
        {
          "indexed": false,
          "internalType": "uint256",
          "name": "value",
          "type": "uint256"
        }
      ],
      "name": "Transfer",
      "type": "event"
    },
    {
      "anonymous": false,
      "inputs": [
        {
          "indexed": false,
          "internalType": "address",
          "name": "account",
          "type": "address"
        }
      ],
      "name": "Unpaused",
      "type": "event"
    },
    {
      "inputs": [],
      "name": "CLIFF_DURATION",
      "outputs": [
        {
          "internalType": "uint256",
          "name": "",
          "type": "uint256"
        }
      ],
      "stateMutability": "view",
      "type": "function"
    },
    {
      "inputs": [],
      "name": "COMMUNITY_ALLOCATION",
      "outputs": [
        {
          "internalType": "uint256",
          "name": "",
          "type": "uint256"
        }
      ],
      "stateMutability": "view",
      "type": "function"
    },
    {
      "inputs": [],
      "name": "DEVELOPMENT_ALLOCATION",
      "outputs": [
        {
          "internalType": "uint256",
          "name": "",
          "type": "uint256"
        }
      ],
      "stateMutability": "view",
      "type": "function"
    },
    {
      "inputs": [],
      "name": "GOVERNANCE_STAKING_RATE",
      "outputs": [
        {
          "internalType": "uint256",
          "name": "",
          "type": "uint256"
        }
      ],
      "stateMutability": "view",
      "type": "function"
    },
    {
      "inputs": [],
      "name": "MAX_SUPPLY",
      "outputs": [
        {
          "internalType": "uint256",
          "name": "",
          "type": "uint256"
        }
      ],
      "stateMutability": "view",
      "type": "function"
    },
    {
      "inputs": [],
      "name": "PARTNERSHIP_ALLOCATION",
      "outputs": [
        {
          "internalType": "uint256",
          "name": "",
          "type": "uint256"
        }
      ],
      "stateMutability": "view",
      "type": "function"
    },
    {
      "inputs": [],
      "name": "RESERVE_ALLOCATION",
      "outputs": [
        {
          "internalType": "uint256",
          "name": "",
          "type": "uint256"
        }
      ],
      "stateMutability": "view",
      "type": "function"
    },
    {
      "inputs": [],
      "name": "STAKING_REWARD_RATE",
      "outputs": [
        {
          "internalType": "uint256",
          "name": "",
          "type": "uint256"
        }
      ],
      "stateMutability": "view",
      "type": "function"
    },
    {
      "inputs": [],
      "name": "TEAM_ALLOCATION",
      "outputs": [
        {
          "internalType": "uint256",
          "name": "",
          "type": "uint256"
        }
      ],
      "stateMutability": "view",
      "type": "function"
    },
    {
      "inputs": [],
      "name": "TOTAL_SUPPLY",
      "outputs": [
        {
          "internalType": "uint256",
          "name": "",
          "type": "uint256"
        }
      ],
      "stateMutability": "view",
      "type": "function"
    },
    {
      "inputs": [],
      "name": "VESTING_DURATION",
      "outputs": [
        {
          "internalType": "uint256",
          "name": "",
          "type": "uint256"
        }
      ],
      "stateMutability": "view",
      "type": "function"
    },
    {
      "inputs": [
        {
          "internalType": "address",
          "name": "owner",
          "type": "address"
        },
        {
          "internalType": "address",
          "name": "spender",
          "type": "address"
        }
      ],
      "name": "allowance",
      "outputs": [
        {
          "internalType": "uint256",
          "name": "",
          "type": "uint256"
        }
      ],
      "stateMutability": "view",
      "type": "function"
    },
    {
      "inputs": [
        {
          "internalType": "address",
          "name": "spender",
          "type": "address"
        },
        {
          "internalType": "uint256",
          "name": "amount",
          "type": "uint256"
        }
      ],
      "name": "approve",
      "outputs": [
        {
          "internalType": "bool",
          "name": "",
          "type": "bool"
        }
      ],
      "stateMutability": "nonpayable",
      "type": "function"
    },
    {
      "inputs": [
        {
          "internalType": "address",
          "name": "account",
          "type": "address"
        }
      ],
      "name": "balanceOf",
      "outputs": [
        {
          "internalType": "uint256",
          "name": "",
          "type": "uint256"
        }
      ],
      "stateMutability": "view",
      "type": "function"
    },
    {
      "inputs": [
        {
          "internalType": "address",
          "name": "user",
          "type": "address"
        }
      ],
      "name": "calculateGovernanceRewards",
      "outputs": [
        {
          "internalType": "uint256",
          "name": "",
          "type": "uint256"
        }
      ],
      "stateMutability": "view",
      "type": "function"
    },
    {
      "inputs": [
        {
          "internalType": "address",
          "name": "user",
          "type": "address"
        }
      ],
      "name": "calculateStakingRewards",
      "outputs": [
        {
          "internalType": "uint256",
          "name": "",
          "type": "uint256"
        }
      ],
      "stateMutability": "view",
      "type": "function"
    },
    {
      "inputs": [],
      "name": "claimGovernanceRewards",
      "outputs": [],
      "stateMutability": "nonpayable",
      "type": "function"
    },
    {
      "inputs": [],
      "name": "claimStakingRewards",
      "outputs": [],
      "stateMutability": "nonpayable",
      "type": "function"
    },
    {
      "inputs": [],
      "name": "decimals",
      "outputs": [
        {
          "internalType": "uint8",
          "name": "",
          "type": "uint8"
        }
      ],
      "stateMutability": "view",
      "type": "function"
    },
    {
      "inputs": [
        {
          "internalType": "address",
          "name": "spender",
          "type": "address"
        },
        {
          "internalType": "uint256",
          "name": "subtractedValue",
          "type": "uint256"
        }
      ],
      "name": "decreaseAllowance",
      "outputs": [
        {
          "internalType": "bool",
          "name": "",
          "type": "bool"
        }
      ],
      "stateMutability": "nonpayable",
      "type": "function"
    },
    {
      "inputs": [
        {
          "internalType": "address",
          "name": "user",
          "type": "address"
        }
      ],
      "name": "getVotingPower",
      "outputs": [
        {
          "internalType": "uint256",
          "name": "",
          "type": "uint256"
        }
      ],
      "stateMutability": "view",
      "type": "function"
    },
    {
      "inputs": [
        {
          "internalType": "address",
          "name": "",
          "type": "address"
        }
      ],
      "name": "governanceStakedAmount",
      "outputs": [
        {
          "internalType": "uint256",
          "name": "",
          "type": "uint256"
        }
      ],
      "stateMutability": "view",
      "type": "function"
    },
    {
      "inputs": [
        {
          "internalType": "address",
          "name": "",
          "type": "address"
        }
      ],
      "name": "governanceStakingStartTime",
      "outputs": [
        {
          "internalType": "uint256",
          "name": "",
          "type": "uint256"
        }
      ],
      "stateMutability": "view",
      "type": "function"
    },
    {
      "inputs": [
        {
          "internalType": "address",
          "name": "spender",
          "type": "address"
        },
        {
          "internalType": "uint256",
          "name": "addedValue",
          "type": "uint256"
        }
      ],
      "name": "increaseAllowance",
      "outputs": [
        {
          "internalType": "bool",
          "name": "",
          "type": "bool"
        }
      ],
      "stateMutability": "nonpayable",
      "type": "function"
    },
    {
      "inputs": [
        {
          "internalType": "address",
          "name": "",
          "type": "address"
        }
      ],
      "name": "isGovernanceStaking",
      "outputs": [
        {
          "internalType": "bool",
          "name": "",
          "type": "bool"
        }
      ],
      "stateMutability": "view",
      "type": "function"
    },
    {
      "inputs": [
        {
          "internalType": "address",
          "name": "",
          "type": "address"
        }
      ],
      "name": "isStaking",
      "outputs": [
        {
          "internalType": "bool",
          "name": "",
          "type": "bool"
        }
      ],
      "stateMutability": "view",
      "type": "function"
    },
    {
      "inputs": [],
      "name": "name",
      "outputs": [
        {
          "internalType": "string",
          "name": "",
          "type": "string"
        }
      ],
      "stateMutability": "view",
      "type": "function"
    },
    {
      "inputs": [],
      "name": "owner",
      "outputs": [
        {
          "internalType": "address",
          "name": "",
          "type": "address"
        }
      ],
      "stateMutability": "view",
      "type": "function"
    },
    {
      "inputs": [],
      "name": "pause",
      "outputs": [],
      "stateMutability": "nonpayable",
      "type": "function"
    },
    {
      "inputs": [],
      "name": "paused",
      "outputs": [
        {
          "internalType": "bool",
          "name": "",
          "type": "bool"
        }
      ],
      "stateMutability": "view",
      "type": "function"
    },
    {
      "inputs": [],
      "name": "renounceOwnership",
      "outputs": [],
      "stateMutability": "nonpayable",
      "type": "function"
    },
    {
      "inputs": [
        {
          "internalType": "uint256",
          "name": "amount",
          "type": "uint256"
        }
      ],
      "name": "stake",
      "outputs": [],
      "stateMutability": "nonpayable",
      "type": "function"
    },
    {
      "inputs": [
        {
          "internalType": "uint256",
          "name": "amount",
          "type": "uint256"
        }
      ],
      "name": "stakeForGovernance",
      "outputs": [],
      "stateMutability": "nonpayable",
      "type": "function"
    },
    {
      "inputs": [
        {
          "internalType": "address",
          "name": "",
          "type": "address"
        }
      ],
      "name": "stakedAmount",
      "outputs": [
        {
          "internalType": "uint256",
          "name": "",
          "type": "uint256"
        }
      ],
      "stateMutability": "view",
      "type": "function"
    },
    {
      "inputs": [
        {
          "internalType": "address",
          "name": "",
          "type": "address"
        }
      ],
      "name": "stakingStartTime",
      "outputs": [
        {
          "internalType": "uint256",
          "name": "",
          "type": "uint256"
        }
      ],
      "stateMutability": "view",
      "type": "function"
    },
    {
      "inputs": [],
      "name": "symbol",
      "outputs": [
        {
          "internalType": "string",
          "name": "",
          "type": "string"
        }
      ],
      "stateMutability": "view",
      "type": "function"
    },
    {
      "inputs": [],
      "name": "totalGovernanceStaked",
      "outputs": [
        {
          "internalType": "uint256",
          "name": "",
          "type": "uint256"
        }
      ],
      "stateMutability": "view",
      "type": "function"
    },
    {
      "inputs": [],
      "name": "totalStaked",
      "outputs": [
        {
          "internalType": "uint256",
          "name": "",
          "type": "uint256"
        }
      ],
      "stateMutability": "view",
      "type": "function"
    },
    {
      "inputs": [],
      "name": "totalSupply",
      "outputs": [
        {
          "internalType": "uint256",
          "name": "",
          "type": "uint256"
        }
      ],
      "stateMutability": "view",
      "type": "function"
    },
    {
      "inputs": [
        {
          "internalType": "address",
          "name": "to",
          "type": "address"
        },
        {
          "internalType": "uint256",
          "name": "amount",
          "type": "uint256"
        }
      ],
      "name": "transfer",
      "outputs": [
        {
          "internalType": "bool",
          "name": "",
          "type": "bool"
        }
      ],
      "stateMutability": "nonpayable",
      "type": "function"
    },
    {
      "inputs": [
        {
          "internalType": "address",
          "name": "from",
          "type": "address"
        },
        {
          "internalType": "address",
          "name": "to",
          "type": "address"
        },
        {
          "internalType": "uint256",
          "name": "amount",
          "type": "uint256"
        }
      ],
      "name": "transferFrom",
      "outputs": [
        {
          "internalType": "bool",
          "name": "",
          "type": "bool"
        }
      ],
      "stateMutability": "nonpayable",
      "type": "function"
    },
    {
      "inputs": [
        {
          "internalType": "address",
          "name": "newOwner",
          "type": "address"
        }
      ],
      "name": "transferOwnership",
      "outputs": [],
      "stateMutability": "nonpayable",
      "type": "function"
    },
    {
      "inputs": [],
      "name": "unpause",
      "outputs": [],
      "stateMutability": "nonpayable",
      "type": "function"
    },
    {
      "inputs": [
        {
          "internalType": "uint256",
          "name": "amount",
          "type": "uint256"
        }
      ],
      "name": "unstake",
      "outputs": [],
      "stateMutability": "nonpayable",
      "type": "function"
    },
    {
      "inputs": [
        {
          "internalType": "uint256",
          "name": "amount",
          "type": "uint256"
        }
      ],
      "name": "unstakeGovernance",
      "outputs": [],
      "stateMutability": "nonpayable",
      "type": "function"
    }
  ],
  "bytecode": "0x60806040523480156200001157600080fd5b506040518060400160405280600a81526020016929a2ab22902a37b5b2b760b11b815250604051806040016040528060048152602001635345564560e01b815250816003908162000063919062000365565b50600462000072828262000365565b5050506200008f620000896200011760201b60201c565b6200011b565b60016006556007805460ff19169055620000b5336aa56fa5b99019a5c80000006200016d565b620000cc336af8277896582678ac0000006200016d565b620000e3336acecb8f27f4200f3a0000006200016d565b620000fa336a7c13bc4b2c133c560000006200016d565b62000111336a52b7d2dcc80cd2e40000006200016d565b62000459565b3390565b600580546001600160a01b038381166001600160a01b0319831681179093556040519116919082907f8be0079c531659141344cd1fd0a4f28419497f9722a3daafe3b4186f6b6457e090600090a35050565b6001600160a01b038216620001c95760405162461bcd60e51b815260206004820152601f60248201527f45524332303a206d696e7420746f20746865207a65726f20616464726573730060448201526064015b60405180910390fd5b620001d76000838362000242565b8060026000828254620001eb919062000431565b90915550506001600160a01b038216600081815260208181526040808320805486019055518481527fddf252ad1be2c89b69c2b068fc378daa952ba7f163c4a11628f55a4df523b3ef910160405180910390a35050565b60075460ff1615806200026257506005546001600160a01b038481169116145b806200027b57506005546001600160a01b038381169116145b620002bc5760405162461bcd60e51b815260206004820152601060248201526f151c985b9cd9995c9cc81c185d5cd95960821b6044820152606401620001c0565b505050565b634e487b7160e01b600052604160045260246000fd5b600181811c90821680620002ec57607f821691505b6020821081036200030d57634e487b7160e01b600052602260045260246000fd5b50919050565b601f821115620002bc57600081815260208120601f850160051c810160208610156200033c5750805b601f850160051c820191505b818110156200035d5782815560010162000348565b505050505050565b81516001600160401b03811115620003815762000381620002c1565b6200039981620003928454620002d7565b8462000313565b602080601f831160018114620003d15760008415620003b85750858301515b600019600386901b1c1916600185901b1785556200035d565b600085815260208120601f198616915b828110156200040257888601518255948401946001909101908401620003e1565b5085821015620004215787850151600019600388901b60f8161c191681555b5050505050600190811b01905550565b808201808211156200045357634e487b7160e01b600052601160045260246000fd5b92915050565b611aa180620004696000396000f3fe608060405234801561001057600080fd5b506004361061027f5760003560e01c8063817b1cd21161015c578063acdcf86d116100ce578063dd62ed3e11610087578063dd62ed3e1461055a578063e1807b271461056d578063ecbb52e61461057f578063f2fde38b14610587578063f99318551461059a578063fd99cbed146105ba57600080fd5b8063acdcf86d146104de578063b3daa65214610501578063bb4d44361461050b578063d12327301461051e578063d47768de1461053e578063dc795c4b1461055157600080fd5b8063993eb1c511610120578063993eb1c51461046b5780639ac7c21e1461047d578063a457c2d714610485578063a694fc3a14610498578063a9059cbb146104ab578063ac96d0d4146104be57600080fd5b8063817b1cd2146104375780638456cb59146104405780638da5cb5b14610448578063902d55a51461032d57806395d89b411461046357600080fd5b8063467917cd116101f55780636b69e05b116101b95780636b69e05b146103b65780636e239425146103be5780636f49712b146103d157806370a08231146103f4578063715018a61461041d5780637b5c7f031461042557600080fd5b8063467917cd1461035b5780634cfc4d301461036d5780635c59ef97146103785780635c975abb1461039857806369e364ce146103a357600080fd5b806323b872dd1161024757806323b872dd146102f85780632e17de781461030b578063313ce5671461031e57806332cb6b0c1461032d57806339509351146103405780633f4ba83a1461035357600080fd5b806306fdde0314610284578063095ea7b3146102a25780630f1a2905146102c557806318160ddd146102db5780631928948c146102e3575b600080fd5b61028c6105cc565b6040516102999190611847565b60405180910390f35b6102b56102b03660046118b1565b61065e565b6040519015158152602001610299565b6102cd600a81565b604051908152602001610299565b6002546102cd565b6102f66102f13660046118db565b610678565b005b6102b56103063660046118f4565b610847565b6102f66103193660046118db565b61086b565b60405160128152602001610299565b6102cd6b033b2e3c9fd0803ce800000081565b6102b561034e3660046118b1565b610a01565b6102f6610a23565b6102cd6a7c13bc4b2c133c5600000081565b6102cd6301e1338081565b6102cd610386366004611930565b600b6020526000908152604090205481565b60075460ff166102b5565b6102f66103b13660046118db565b610a35565b6102f6610b88565b6102cd6103cc366004611930565b610c94565b6102b56103df366004611930565b600a6020526000908152604090205460ff1681565b6102cd610402366004611930565b6001600160a01b031660009081526020819052604090205490565b6102f6610d3b565b6102cd6a52b7d2dcc80cd2e400000081565b6102cd600e5481565b6102f6610d4d565b6005546040516001600160a01b039091168152602001610299565b61028c610d5d565b6102cd6acecb8f27f4200f3a00000081565b6102f6610d6c565b6102b56104933660046118b1565b610e74565b6102f66104a63660046118db565b610eef565b6102b56104b93660046118b1565b611039565b6102cd6104cc366004611930565b600c6020526000908152604090205481565b6102b56104ec366004611930565b600d6020526000908152604090205460ff1681565b6102cd6276a70081565b6102cd610519366004611930565b611047565b6102cd61052c366004611930565b60096020526000908152604090205481565b6102cd61054c366004611930565b61107d565b6102cd600f5481565b6102cd610568366004611952565b6110f4565b6102cd6af8277896582678ac00000081565b6102cd600881565b6102f6610595366004611930565b61111f565b6102cd6105a8366004611930565b60086020526000908152604090205481565b6102cd6aa56fa5b99019a5c800000081565b6060600380546105db90611985565b80601f016020809104026020016040519081016040528092919081815260200182805461060790611985565b80156106545780601f1061062957610100808354040283529160200191610654565b820191906000526020600020905b81548152906001019060200180831161063757829003601f168201915b5050505050905090565b60003361066c818585611195565b60019150505b92915050565b6106806112b9565b600081116106a95760405162461bcd60e51b81526004016106a0906119bf565b60405180910390fd5b336000908152600d602052604090205460ff166107015760405162461bcd60e51b81526020600482015260166024820152754e6f7420676f7665726e616e6365207374616b696e6760501b60448201526064016106a0565b336000908152600b602052604090205481111561076e5760405162461bcd60e51b815260206004820152602560248201527f496e73756666696369656e7420676f7665726e616e6365207374616b656420616044820152641b5bdd5b9d60da1b60648201526084016106a0565b600061077933610c94565b336000908152600b602052604081208054929350849290919061079d908490611a0c565b9250508190555081600f60008282546107b69190611a0c565b9091555050336000908152600b602052604081205490036107e957336000908152600d60205260409020805460ff191690555b6107fd30336107f88486611a1f565b611312565b604080518381526020810183905233917f26e5b68ad11dfc7fd13ab0d8818a19db27e1274d86286aa9727284310599aeec91015b60405180910390a2506108446001600655565b50565b6000336108558582856114c3565b610860858585611312565b506001949350505050565b6108736112b9565b600081116108935760405162461bcd60e51b81526004016106a0906119bf565b336000908152600a602052604090205460ff166108e05760405162461bcd60e51b815260206004820152600b60248201526a4e6f74207374616b696e6760a81b60448201526064016106a0565b3360009081526008602052604090205481111561093f5760405162461bcd60e51b815260206004820152601a60248201527f496e73756666696369656e74207374616b656420616d6f756e7400000000000060448201526064016106a0565b600061094a3361107d565b3360009081526008602052604081208054929350849290919061096e908490611a0c565b9250508190555081600e60008282546109879190611a0c565b90915550503360009081526008602052604081205490036109ba57336000908152600a60205260409020805460ff191690555b6109c930336107f88486611a1f565b604080518381526020810183905233917f6f2d3e000c89d37446b7c0374c0125068ff316d1e3ee302336478a8cd03c23369101610831565b60003361066c818585610a1483836110f4565b610a1e9190611a1f565b611195565b610a2b611537565b610a33611591565b565b610a3d6112b9565b610a456115e3565b60008111610a655760405162461bcd60e51b81526004016106a0906119bf565b33600090815260208190526040902054811115610abb5760405162461bcd60e51b8152602060048201526014602482015273496e73756666696369656e742062616c616e636560601b60448201526064016106a0565b336000908152600d602052604090205460ff1615610adb57610adb610d6c565b610ae6333083611312565b336000908152600b602052604081208054839290610b05908490611a1f565b9091555050336000908152600c60209081526040808320429055600d9091528120805460ff19166001179055600f8054839290610b43908490611a1f565b909155505060405181815233907f89a177b6b4095953e2703c495f238a82fc60d409c6c5b6d4adbd8974b9e2ee0b906020015b60405180910390a26108446001600655565b610b906112b9565b336000908152600a602052604090205460ff16610bdd5760405162461bcd60e51b815260206004820152600b60248201526a4e6f74207374616b696e6760a81b60448201526064016106a0565b6000610be83361107d565b905060008111610c305760405162461bcd60e51b81526020600482015260136024820152724e6f207265776172647320746f20636c61696d60681b60448201526064016106a0565b336000818152600960205260409020429055610c4c9082611629565b60408051600081526020810183905233917f6f2d3e000c89d37446b7c0374c0125068ff316d1e3ee302336478a8cd03c233691015b60405180910390a250610a336001600655565b6001600160a01b0381166000908152600d602052604081205460ff16610cbc57506000919050565b6001600160a01b0382166000908152600c6020526040812054610cdf9042611a0c565b6001600160a01b0384166000908152600b602052604081205491925090606490610d0b90600890611a32565b610d159190611a49565b905060006301e13380610d288484611a32565b610d329190611a49565b95945050505050565b610d43611537565b610a3360006116f4565b610d55611537565b610a33611746565b6060600480546105db90611985565b610d746112b9565b336000908152600d602052604090205460ff16610dcc5760405162461bcd60e51b81526020600482015260166024820152754e6f7420676f7665726e616e6365207374616b696e6760501b60448201526064016106a0565b6000610dd733610c94565b905060008111610e1f5760405162461bcd60e51b81526020600482015260136024820152724e6f207265776172647320746f20636c61696d60681b60448201526064016106a0565b336000818152600c60205260409020429055610e3b9082611629565b60408051600081526020810183905233917f26e5b68ad11dfc7fd13ab0d8818a19db27e1274d86286aa9727284310599aeec9101610c81565b60003381610e8282866110f4565b905083811015610ee25760405162461bcd60e51b815260206004820152602560248201527f45524332303a2064656372656173656420616c6c6f77616e63652062656c6f77604482015264207a65726f60d81b60648201526084016106a0565b6108608286868403611195565b610ef76112b9565b610eff6115e3565b60008111610f1f5760405162461bcd60e51b81526004016106a0906119bf565b33600090815260208190526040902054811115610f755760405162461bcd60e51b8152602060048201526014602482015273496e73756666696369656e742062616c616e636560601b60448201526064016106a0565b336000908152600a602052604090205460ff1615610f9557610f95610b88565b610fa0333083611312565b3360009081526008602052604081208054839290610fbf908490611a1f565b9091555050336000908152600960209081526040808320429055600a9091528120805460ff19166001179055600e8054839290610ffd908490611a1f565b90915550506040805182815242602082015233917fdd2a19c3bdd089cbe77c04f5655f83de0504d6140d12c8667646f55d0557c4dc9101610b76565b60003361066c818585611312565b6001600160a01b038116600090815260086020908152604080832054600b9092528220546110758183611a1f565b949350505050565b6001600160a01b0381166000908152600a602052604081205460ff166110a557506000919050565b6001600160a01b0382166000908152600960205260408120546110c89042611a0c565b6001600160a01b03841660009081526008602052604081205491925090606490610d0b90600a90611a32565b6001600160a01b03918216600090815260016020908152604080832093909416825291909152205490565b611127611537565b6001600160a01b03811661118c5760405162461bcd60e51b815260206004820152602660248201527f4f776e61626c653a206e6577206f776e657220697320746865207a65726f206160448201526564647265737360d01b60648201526084016106a0565b610844816116f4565b6001600160a01b0383166111f75760405162461bcd60e51b8152602060048201526024808201527f45524332303a20617070726f76652066726f6d20746865207a65726f206164646044820152637265737360e01b60648201526084016106a0565b6001600160a01b0382166112585760405162461bcd60e51b815260206004820152602260248201527f45524332303a20617070726f766520746f20746865207a65726f206164647265604482015261737360f01b60648201526084016106a0565b6001600160a01b0383811660008181526001602090815260408083209487168084529482529182902085905590518481527f8c5be1e5ebec7d5bd14f71427d1e84f3dd0314c0f7b2291e5b200ac8c7c3b925910160405180910390a3505050565b60026006540361130b5760405162461bcd60e51b815260206004820152601f60248201527f5265656e7472616e637947756172643a207265656e7472616e742063616c6c0060448201526064016106a0565b6002600655565b6001600160a01b0383166113765760405162461bcd60e51b815260206004820152602560248201527f45524332303a207472616e736665722066726f6d20746865207a65726f206164604482015264647265737360d81b60648201526084016106a0565b6001600160a01b0382166113d85760405162461bcd60e51b815260206004820152602360248201527f45524332303a207472616e7366657220746f20746865207a65726f206164647260448201526265737360e81b60648201526084016106a0565b6113e3838383611783565b6001600160a01b0383166000908152602081905260409020548181101561145b5760405162461bcd60e51b815260206004820152602660248201527f45524332303a207472616e7366657220616d6f756e7420657863656564732062604482015265616c616e636560d01b60648201526084016106a0565b6001600160a01b03848116600081815260208181526040808320878703905593871680835291849020805487019055925185815290927fddf252ad1be2c89b69c2b068fc378daa952ba7f163c4a11628f55a4df523b3ef910160405180910390a35b50505050565b60006114cf84846110f4565b905060001981146114bd578181101561152a5760405162461bcd60e51b815260206004820152601d60248201527f45524332303a20696e73756666696369656e7420616c6c6f77616e636500000060448201526064016106a0565b6114bd8484848403611195565b6005546001600160a01b03163314610a335760405162461bcd60e51b815260206004820181905260248201527f4f776e61626c653a2063616c6c6572206973206e6f7420746865206f776e657260448201526064016106a0565b6115996117fe565b6007805460ff191690557f5db9ee0a495bf2e6ff9c91a7834c1ba4fdd244a5e8aa4e537bd38aeae4b073aa335b6040516001600160a01b03909116815260200160405180910390a1565b60075460ff1615610a335760405162461bcd60e51b815260206004820152601060248201526f14185d5cd8589b194e881c185d5cd95960821b60448201526064016106a0565b6001600160a01b03821661167f5760405162461bcd60e51b815260206004820152601f60248201527f45524332303a206d696e7420746f20746865207a65726f20616464726573730060448201526064016106a0565b61168b60008383611783565b806002600082825461169d9190611a1f565b90915550506001600160a01b038216600081815260208181526040808320805486019055518481527fddf252ad1be2c89b69c2b068fc378daa952ba7f163c4a11628f55a4df523b3ef910160405180910390a35050565b600580546001600160a01b038381166001600160a01b0319831681179093556040519116919082907f8be0079c531659141344cd1fd0a4f28419497f9722a3daafe3b4186f6b6457e090600090a35050565b61174e6115e3565b6007805460ff191660011790557f62e78cea01bee320cd4e420270b5ea74000d11b0c9f74754ebdbfc544b05a2586115c63390565b60075460ff1615806117a257506005546001600160a01b038481169116145b806117ba57506005546001600160a01b038381169116145b6117f95760405162461bcd60e51b815260206004820152601060248201526f151c985b9cd9995c9cc81c185d5cd95960821b60448201526064016106a0565b505050565b60075460ff16610a335760405162461bcd60e51b815260206004820152601460248201527314185d5cd8589b194e881b9bdd081c185d5cd95960621b60448201526064016106a0565b600060208083528351808285015260005b8181101561187457858101830151858201604001528201611858565b506000604082860101526040601f19601f8301168501019250505092915050565b80356001600160a01b03811681146118ac57600080fd5b919050565b600080604083850312156118c457600080fd5b6118cd83611895565b946020939093013593505050565b6000602082840312156118ed57600080fd5b5035919050565b60008060006060848603121561190957600080fd5b61191284611895565b925061192060208501611895565b9150604084013590509250925092565b60006020828403121561194257600080fd5b61194b82611895565b9392505050565b6000806040838503121561196557600080fd5b61196e83611895565b915061197c60208401611895565b90509250929050565b600181811c9082168061199957607f821691505b6020821081036119b957634e487b7160e01b600052602260045260246000fd5b50919050565b6020808252601d908201527f416d6f756e74206d7573742062652067726561746572207468616e2030000000604082015260600190565b634e487b7160e01b600052601160045260246000fd5b81810381811115610672576106726119f6565b80820180821115610672576106726119f6565b8082028115828204841417610672576106726119f6565b600082611a6657634e487b7160e01b600052601260045260246000fd5b50049056fea2646970667358221220397267045552bec9950a24d67f9ce8301d287b42df6f1d3749c1a747ee3726c964736f6c63430008130033",
  "linkReferences": {},
  "deployedLinkReferences": {}
}