{
  "_format": "hh-sol-artifact-1",
  "contractName": "SEVEDAO",
  "sourceName": "contracts/SEVEDAO.sol",
  "abi": [
    {
      "inputs": [
        {
          "internalType": "address",
          "name": "_seveToken",
          "type": "address"
        }
      ],
      "stateMutability": "nonpayable",
      "type": "constructor"
    },
    {
      "anonymous": false,
      "inputs": [
        {
          "indexed": true,
          "internalType": "address",
          "name": "previousOwner",
          "type": "address"
        },
        {
          "indexed": true,
          "internalType": "address",
          "name": "newOwner",
          "type": "address"
        }
      ],
      "name": "OwnershipTransferred",
      "type": "event"
    },
    {
      "anonymous": false,
      "inputs": [
        {
          "indexed": false,
          "internalType": "address",
          "name": "account",
          "type": "address"
        }
      ],
      "name": "Paused",
      "type": "event"
    },
    {
      "anonymous": false,
      "inputs": [
        {
          "indexed": true,
          "internalType": "uint256",
          "name": "proposalId",
          "type": "uint256"
        },
        {
          "indexed": true,
          "internalType": "address",
          "name": "proposer",
          "type": "address"
        },
        {
          "indexed": false,
          "internalType": "string",
          "name": "title",
          "type": "string"
        },
        {
          "indexed": false,
          "internalType": "enum SEVEDAO.ProposalType",
          "name": "proposalType",
          "type": "uint8"
        }
      ],
      "name": "ProposalCreated",
      "type": "event"
    },
    {
      "anonymous": false,
      "inputs": [
        {
          "indexed": true,
          "internalType": "uint256",
          "name": "proposalId",
          "type": "uint256"
        }
      ],
      "name": "ProposalExecuted",
      "type": "event"
    },
    {
      "anonymous": false,
      "inputs": [
        {
          "indexed": true,
          "internalType": "uint256",
          "name": "proposalId",
          "type": "uint256"
        },
        {
          "indexed": false,
          "internalType": "enum SEVEDAO.ProposalType",
          "name": "newType",
          "type": "uint8"
        }
      ],
      "name": "ProposalTypeUpdated",
      "type": "event"
    },
    {
      "anonymous": false,
      "inputs": [
        {
          "indexed": false,
          "internalType": "address",
          "name": "account",
          "type": "address"
        }
      ],
      "name": "Unpaused",
      "type": "event"
    },
    {
      "anonymous": false,
      "inputs": [
        {
          "indexed": true,
          "internalType": "uint256",
          "name": "proposalId",
          "type": "uint256"
        },
        {
          "indexed": true,
          "internalType": "address",
          "name": "voter",
          "type": "address"
        },
        {
          "indexed": false,
          "internalType": "bool",
          "name": "support",
          "type": "bool"
        },
        {
          "indexed": false,
          "internalType": "uint256",
          "name": "votingPower",
          "type": "uint256"
        }
      ],
      "name": "VoteCast",
      "type": "event"
    },
    {
      "inputs": [
        {
          "internalType": "address",
          "name": "",
          "type": "address"
        }
      ],
      "name": "authorizedProposers",
      "outputs": [
        {
          "internalType": "bool",
          "name": "",
          "type": "bool"
        }
      ],
      "stateMutability": "view",
      "type": "function"
    },
    {
      "inputs": [
        {
          "internalType": "string",
          "name": "title",
          "type": "string"
        },
        {
          "internalType": "string",
          "name": "description",
          "type": "string"
        },
        {
          "internalType": "enum SEVEDAO.ProposalType",
          "name": "proposalType",
          "type": "uint8"
        },
        {
          "internalType": "bytes",
          "name": "data",
          "type": "bytes"
        }
      ],
      "name": "createProposal",
      "outputs": [
        {
          "internalType": "uint256",
          "name": "",
          "type": "uint256"
        }
      ],
      "stateMutability": "nonpayable",
      "type": "function"
    },
    {
      "inputs": [
        {
          "internalType": "uint256",
          "name": "proposalId",
          "type": "uint256"
        }
      ],
      "name": "executeProposal",
      "outputs": [],
      "stateMutability": "nonpayable",
      "type": "function"
    },
    {
      "inputs": [],
      "name": "executionDelay",
      "outputs": [
        {
          "internalType": "uint256",
          "name": "",
          "type": "uint256"
        }
      ],
      "stateMutability": "view",
      "type": "function"
    },
    {
      "inputs": [
        {
          "internalType": "uint256",
          "name": "proposalId",
          "type": "uint256"
        }
      ],
      "name": "getProposal",
      "outputs": [
        {
          "components": [
            {
              "internalType": "uint256",
              "name": "id",
              "type": "uint256"
            },
            {
              "internalType": "address",
              "name": "proposer",
              "type": "address"
            },
            {
              "internalType": "string",
              "name": "title",
              "type": "string"
            },
            {
              "internalType": "string",
              "name": "description",
              "type": "string"
            },
            {
              "internalType": "uint256",
              "name": "votesFor",
              "type": "uint256"
            },
            {
              "internalType": "uint256",
              "name": "votesAgainst",
              "type": "uint256"
            },
            {
              "internalType": "uint256",
              "name": "startTime",
              "type": "uint256"
            },
            {
              "internalType": "uint256",
              "name": "endTime",
              "type": "uint256"
            },
            {
              "internalType": "bool",
              "name": "executed",
              "type": "bool"
            },
            {
              "internalType": "enum SEVEDAO.ProposalType",
              "name": "proposalType",
              "type": "uint8"
            },
            {
              "internalType": "bytes",
              "name": "data",
              "type": "bytes"
            }
          ],
          "internalType": "struct SEVEDAO.Proposal",
          "name": "",
          "type": "tuple"
        }
      ],
      "stateMutability": "view",
      "type": "function"
    },
    {
      "inputs": [
        {
          "internalType": "uint256",
          "name": "proposalId",
          "type": "uint256"
        }
      ],
      "name": "getProposalStatus",
      "outputs": [
        {
          "internalType": "string",
          "name": "",
          "type": "string"
        }
      ],
      "stateMutability": "view",
      "type": "function"
    },
    {
      "inputs": [
        {
          "internalType": "uint256",
          "name": "proposalId",
          "type": "uint256"
        },
        {
          "internalType": "address",
          "name": "voter",
          "type": "address"
        }
      ],
      "name": "getUserVote",
      "outputs": [
        {
          "components": [
            {
              "internalType": "bool",
              "name": "hasVoted",
              "type": "bool"
            },
            {
              "internalType": "bool",
              "name": "support",
              "type": "bool"
            },
            {
              "internalType": "uint256",
              "name": "votingPower",
              "type": "uint256"
            }
          ],
          "internalType": "struct SEVEDAO.Vote",
          "name": "",
          "type": "tuple"
        }
      ],
      "stateMutability": "view",
      "type": "function"
    },
    {
      "inputs": [],
      "name": "owner",
      "outputs": [
        {
          "internalType": "address",
          "name": "",
          "type": "address"
        }
      ],
      "stateMutability": "view",
      "type": "function"
    },
    {
      "inputs": [],
      "name": "pause",
      "outputs": [],
      "stateMutability": "nonpayable",
      "type": "function"
    },
    {
      "inputs": [],
      "name": "paused",
      "outputs": [
        {
          "internalType": "bool",
          "name": "",
          "type": "bool"
        }
      ],
      "stateMutability": "view",
      "type": "function"
    },
    {
      "inputs": [],
      "name": "proposalCount",
      "outputs": [
        {
          "internalType": "uint256",
          "name": "",
          "type": "uint256"
        }
      ],
      "stateMutability": "view",
      "type": "function"
    },
    {
      "inputs": [
        {
          "internalType": "uint256",
          "name": "",
          "type": "uint256"
        }
      ],
      "name": "proposals",
      "outputs": [
        {
          "internalType": "uint256",
          "name": "id",
          "type": "uint256"
        },
        {
          "internalType": "address",
          "name": "proposer",
          "type": "address"
        },
        {
          "internalType": "string",
          "name": "title",
          "type": "string"
        },
        {
          "internalType": "string",
          "name": "description",
          "type": "string"
        },
        {
          "internalType": "uint256",
          "name": "votesFor",
          "type": "uint256"
        },
        {
          "internalType": "uint256",
          "name": "votesAgainst",
          "type": "uint256"
        },
        {
          "internalType": "uint256",
          "name": "startTime",
          "type": "uint256"
        },
        {
          "internalType": "uint256",
          "name": "endTime",
          "type": "uint256"
        },
        {
          "internalType": "bool",
          "name": "executed",
          "type": "bool"
        },
        {
          "internalType": "enum SEVEDAO.ProposalType",
          "name": "proposalType",
          "type": "uint8"
        },
        {
          "internalType": "bytes",
          "name": "data",
          "type": "bytes"
        }
      ],
      "stateMutability": "view",
      "type": "function"
    },
    {
      "inputs": [],
      "name": "quorumThreshold",
      "outputs": [
        {
          "internalType": "uint256",
          "name": "",
          "type": "uint256"
        }
      ],
      "stateMutability": "view",
      "type": "function"
    },
    {
      "inputs": [],
      "name": "renounceOwnership",
      "outputs": [],
      "stateMutability": "nonpayable",
      "type": "function"
    },
    {
      "inputs": [
        {
          "internalType": "address",
          "name": "proposer",
          "type": "address"
        },
        {
          "internalType": "bool",
          "name": "authorized",
          "type": "bool"
        }
      ],
      "name": "setAuthorizedProposer",
      "outputs": [],
      "stateMutability": "nonpayable",
      "type": "function"
    },
    {
      "inputs": [
        {
          "internalType": "uint256",
          "name": "newExecutionDelay",
          "type": "uint256"
        }
      ],
      "name": "setExecutionDelay",
      "outputs": [],
      "stateMutability": "nonpayable",
      "type": "function"
    },
    {
      "inputs": [
        {
          "internalType": "uint256",
          "name": "newQuorumThreshold",
          "type": "uint256"
        }
      ],
      "name": "setQuorumThreshold",
      "outputs": [],
      "stateMutability": "nonpayable",
      "type": "function"
    },
    {
      "inputs": [
        {
          "internalType": "uint256",
          "name": "newSupermajorityThreshold",
          "type": "uint256"
        }
      ],
      "name": "setSupermajorityThreshold",
      "outputs": [],
      "stateMutability": "nonpayable",
      "type": "function"
    },
    {
      "inputs": [
        {
          "internalType": "uint256",
          "name": "newVotingPeriod",
          "type": "uint256"
        }
      ],
      "name": "setVotingPeriod",
      "outputs": [],
      "stateMutability": "nonpayable",
      "type": "function"
    },
    {
      "inputs": [],
      "name": "seveToken",
      "outputs": [
        {
          "internalType": "contract SEVEToken",
          "name": "",
          "type": "address"
        }
      ],
      "stateMutability": "view",
      "type": "function"
    },
    {
      "inputs": [],
      "name": "supermajorityThreshold",
      "outputs": [
        {
          "internalType": "uint256",
          "name": "",
          "type": "uint256"
        }
      ],
      "stateMutability": "view",
      "type": "function"
    },
    {
      "inputs": [
        {
          "internalType": "address",
          "name": "newOwner",
          "type": "address"
        }
      ],
      "name": "transferOwnership",
      "outputs": [],
      "stateMutability": "nonpayable",
      "type": "function"
    },
    {
      "inputs": [],
      "name": "unpause",
      "outputs": [],
      "stateMutability": "nonpayable",
      "type": "function"
    },
    {
      "inputs": [
        {
          "internalType": "uint256",
          "name": "proposalId",
          "type": "uint256"
        },
        {
          "internalType": "bool",
          "name": "support",
          "type": "bool"
        }
      ],
      "name": "vote",
      "outputs": [],
      "stateMutability": "nonpayable",
      "type": "function"
    },
    {
      "inputs": [
        {
          "internalType": "uint256",
          "name": "",
          "type": "uint256"
        },
        {
          "internalType": "address",
          "name": "",
          "type": "address"
        }
      ],
      "name": "votes",
      "outputs": [
        {
          "internalType": "bool",
          "name": "hasVoted",
          "type": "bool"
        },
        {
          "internalType": "bool",
          "name": "support",
          "type": "bool"
        },
        {
          "internalType": "uint256",
          "name": "votingPower",
          "type": "uint256"
        }
      ],
      "stateMutability": "view",
      "type": "function"
    },
    {
      "inputs": [],
      "name": "votingPeriod",
      "outputs": [
        {
          "internalType": "uint256",
          "name": "",
          "type": "uint256"
        }
      ],
      "stateMutability": "view",
      "type": "function"
    }
  ],
  "bytecode": "0x608060405262093a8060075562015180600855600a6009556042600a553480156200002957600080fd5b50604051620025b0380380620025b08339810160408190526200004c91620000f2565b6200005733620000a2565b6001808055600280546001600160a01b03909316610100026001600160a81b031990931692909217909155336000908152600560205260409020805460ff1916909117905562000124565b600080546001600160a01b038381166001600160a01b0319831681178455604051919092169283917f8be0079c531659141344cd1fd0a4f28419497f9722a3daafe3b4186f6b6457e09190a35050565b6000602082840312156200010557600080fd5b81516001600160a01b03811681146200011d57600080fd5b9392505050565b61247c80620001346000396000f3fe608060405234801561001057600080fd5b506004361061018e5760003560e01c80638b257989116100de578063d23254b411610097578063e752b4b611610071578063e752b4b6146103b6578063ea0217cf146103c9578063f2fde38b146103dc578063f6cf0ac6146103ef57600080fd5b8063d23254b41461033e578063da35c6641461039a578063e4917d9f146103a357600080fd5b80638b257989146102bc5780638da5cb5b146102c5578063ad0703e2146102ea578063c7f758a814610302578063c9d27afe14610322578063ca7d367b1461033557600080fd5b8063401853b71161014b57806360f827bf1161012557806360f827bf14610290578063715018a6146102a35780637b7a91dd146102ab5780638456cb59146102b457600080fd5b8063401853b7146102465780634524c7e1146102665780635c975abb1461027957600080fd5b8063013cf08b1461019357806302a251a3146101c657806303c7881a146101dd5780630d61b5191461021657806318a988321461022b5780633f4ba83a1461023e575b600080fd5b6101a66101a1366004611e01565b610412565b6040516101bd9b9a99989796959493929190611e98565b60405180910390f35b6101cf60075481565b6040519081526020016101bd565b6101f06101eb366004611f49565b610615565b6040805182511515815260208084015115159082015291810151908201526060016101bd565b610229610224366004611e01565b610684565b005b610229610239366004611e01565b610a7e565b610229610b2d565b610259610254366004611e01565b610b3f565b6040516101bd9190611f75565b610229610274366004611e01565b61103e565b60025460ff165b60405190151581526020016101bd565b6101cf61029e36600461203b565b6110ed565b6102296113b5565b6101cf60095481565b6102296113c7565b6101cf60085481565b6000546001600160a01b03165b6040516001600160a01b0390911681526020016101bd565b6002546102d29061010090046001600160a01b031681565b610315610310366004611e01565b6113d7565b6040516101bd91906120f0565b6102296103303660046121df565b611642565b6101cf600a5481565b61037d61034c366004611f49565b60046020908152600092835260408084209091529082529020805460019091015460ff808316926101009004169083565b6040805193151584529115156020840152908201526060016101bd565b6101cf60065481565b6102296103b1366004611e01565b611978565b6102296103c4366004612202565b6119d8565b6102296103d7366004611e01565b611a0b565b6102296103ea36600461222c565b611ab7565b6102806103fd36600461222c565b60056020526000908152604090205460ff1681565b60036020526000908152604090208054600182015460028301805492936001600160a01b039092169261044490612247565b80601f016020809104026020016040519081016040528092919081815260200182805461047090612247565b80156104bd5780601f10610492576101008083540402835291602001916104bd565b820191906000526020600020905b8154815290600101906020018083116104a057829003601f168201915b5050505050908060030180546104d290612247565b80601f01602080910402602001604051908101604052809291908181526020018280546104fe90612247565b801561054b5780601f106105205761010080835404028352916020019161054b565b820191906000526020600020905b81548152906001019060200180831161052e57829003601f168201915b5050506004840154600585015460068601546007870154600888015460098901805498999598949750929550909360ff808316946101009093041692909161059290612247565b80601f01602080910402602001604051908101604052809291908181526020018280546105be90612247565b801561060b5780601f106105e05761010080835404028352916020019161060b565b820191906000526020600020905b8154815290600101906020018083116105ee57829003601f168201915b505050505090508b565b604080516060808201835260008083526020808401829052928401819052858152600483528381206001600160a01b0386168252835283902083519182018452805460ff8082161515845261010090910416151592820192909252600190910154918101919091525b92915050565b61068c611b2d565b6000818152600360205260409020805482146106e95760405162461bcd60e51b8152602060048201526017602482015276141c9bdc1bdcd85b08191bd95cc81b9bdd08195e1a5cdd604a1b60448201526064015b60405180910390fd5b8060070154421161072f5760405162461bcd60e51b815260206004820152601060248201526f159bdd1a5b99c81b9bdd08195b99195960821b60448201526064016106e0565b600881015460ff16156107805760405162461bcd60e51b8152602060048201526019602482015278141c9bdc1bdcd85b08185b1c9958591e48195e1958dd5d1959603a1b60448201526064016106e0565b60085481600701546107929190612297565b4210156107e15760405162461bcd60e51b815260206004820152601760248201527f457865637574696f6e2064656c6179206e6f74206d657400000000000000000060448201526064016106e0565b6000816005015482600401546107f79190612297565b90506000600260019054906101000a90046001600160a01b03166001600160a01b03166318160ddd6040518163ffffffff1660e01b8152600401602060405180830381865afa15801561084e573d6000803e3d6000fd5b505050506040513d601f19601f8201168201806040525081019061087291906122aa565b9050600060646009548361088691906122c3565b61089091906122da565b9050808310156108d75760405162461bcd60e51b8152602060048201526012602482015271145d5bdc9d5b481b9bdd081c995858da195960721b60448201526064016106e0565b600060036008860154610100900460ff1660038111156108f9576108f9611e60565b0361092657600a54848660040154606461091391906122c3565b61091d91906122da565b10159050610933565b5060058401546004850154115b806109765760405162461bcd60e51b8152602060048201526013602482015272141c9bdc1bdcd85b081b9bdd081c185cdcd959606a1b60448201526064016106e0565b60088501805460ff1916600117905560006008860154610100900460ff1660038111156109a5576109a5611e60565b036109b8576109b386611b86565b610a42565b60016008860154610100900460ff1660038111156109d8576109d8611e60565b036109e6576109b386611b86565b60026008860154610100900460ff166003811115610a0657610a06611e60565b03610a14576109b386611b86565b60036008860154610100900460ff166003811115610a3457610a34611e60565b03610a4257610a4286611b86565b60405186907f712ae1383f79ac853f8d882153778e0260ef8f03b504e2866e0593e04d2b291f90600090a25050505050610a7b60018055565b50565b610a86611bc3565b6033811015610ad75760405162461bcd60e51b815260206004820152601f60248201527f53757065726d616a6f72697479207468726573686f6c6420746f6f206c6f770060448201526064016106e0565b605a811115610b285760405162461bcd60e51b815260206004820181905260248201527f53757065726d616a6f72697479207468726573686f6c6420746f6f206869676860448201526064016106e0565b600a55565b610b35611bc3565b610b3d611c1d565b565b60008181526003602090815260408083208151610160810183528154815260018201546001600160a01b031693810193909352600281018054606095949384019190610b8a90612247565b80601f0160208091040260200160405190810160405280929190818152602001828054610bb690612247565b8015610c035780601f10610bd857610100808354040283529160200191610c03565b820191906000526020600020905b815481529060010190602001808311610be657829003601f168201915b50505050508152602001600382018054610c1c90612247565b80601f0160208091040260200160405190810160405280929190818152602001828054610c4890612247565b8015610c955780601f10610c6a57610100808354040283529160200191610c95565b820191906000526020600020905b815481529060010190602001808311610c7857829003601f168201915b505050918352505060048201546020820152600582015460408201526006820154606082015260078201546080820152600882015460ff808216151560a084015260c090920191610100909104166003811115610cf457610cf4611e60565b6003811115610d0557610d05611e60565b8152602001600982018054610d1990612247565b80601f0160208091040260200160405190810160405280929190818152602001828054610d4590612247565b8015610d925780601f10610d6757610100808354040283529160200191610d92565b820191906000526020600020905b815481529060010190602001808311610d7557829003601f168201915b505050505081525050905082816000015114610dd257505060408051808201909152600c81526b139bdb8b595e1a5cdd195b9d60a21b6020820152919050565b80610100015115610e03575050604080518082019091526008815267115e1958dd5d195960c21b6020820152919050565b8060c00151421015610e3457505060408051808201909152600781526650656e64696e6760c81b6020820152919050565b8060e001514211610e6357505060408051808201909152600681526541637469766560d01b6020820152919050565b6008548160e00151610e759190612297565b421015610ea957505060408051808201909152600f81526e457865637574696f6e2044656c617960881b6020820152919050565b60008160a001518260800151610ebf9190612297565b90506000600260019054906101000a90046001600160a01b03166001600160a01b03166318160ddd6040518163ffffffff1660e01b8152600401602060405180830381865afa158015610f16573d6000803e3d6000fd5b505050506040513d601f19601f82011682018060405250810190610f3a91906122aa565b90506000606460095483610f4e91906122c3565b610f5891906122da565b905080831015610f955750506040805180820190915260128152714661696c6564202d204e6f2051756f72756d60701b6020820152949350505050565b600060038561012001516003811115610fb057610fb0611e60565b03610fdd57600a548486608001516064610fca91906122c3565b610fd491906122da565b10159050610fea565b5060a08401516080850151115b80611013576040518060400160405280600681526020016511985a5b195960d21b815250611033565b6040518060400160405280600681526020016514185cdcd95960d21b8152505b979650505050505050565b611046611bc3565b60058110156110975760405162461bcd60e51b815260206004820152601860248201527f51756f72756d207468726573686f6c6420746f6f206c6f77000000000000000060448201526064016106e0565b60328111156110e85760405162461bcd60e51b815260206004820152601960248201527f51756f72756d207468726573686f6c6420746f6f20686967680000000000000060448201526064016106e0565b600955565b60006110f7611c6f565b3360009081526005602052604090205460ff166111565760405162461bcd60e51b815260206004820152601960248201527f4e6f7420617574686f72697a656420746f2070726f706f73650000000000000060448201526064016106e0565b600085511161119f5760405162461bcd60e51b81526020600482015260156024820152745469746c652063616e6e6f7420626520656d70747960581b60448201526064016106e0565b60008451116111f05760405162461bcd60e51b815260206004820152601b60248201527f4465736372697074696f6e2063616e6e6f7420626520656d707479000000000060448201526064016106e0565b6006805460009182611201836122fc565b919050559050604051806101600160405280828152602001336001600160a01b031681526020018781526020018681526020016000815260200160008152602001428152602001600754426112569190612297565b81526000602082015260400185600381111561127457611274611e60565b8152602090810185905260008381526003825260409081902083518155918301516001830180546001600160a01b0319166001600160a01b0390921691909117905582015160028201906112c89082612364565b50606082015160038201906112dd9082612364565b506080820151600482015560a0820151600582015560c0820151600682015560e082015160078201556101008083015160088301805491151560ff1983168117825561012086015193919261ff001990911661ffff19909116179083600381111561134a5761134a611e60565b021790555061014082015160098201906113649082612364565b50905050336001600160a01b0316817fe0269f7953e70365e80e614e4efe7d4bede59b7f5ad80982ea4064c97ee6f4ef88876040516113a4929190612424565b60405180910390a395945050505050565b6113bd611bc3565b610b3d6000611cb5565b6113cf611bc3565b610b3d611d05565b6113df611d8b565b6000828152600360209081526040918290208251610160810184528154815260018201546001600160a01b031692810192909252600281018054929391929184019161142a90612247565b80601f016020809104026020016040519081016040528092919081815260200182805461145690612247565b80156114a35780601f10611478576101008083540402835291602001916114a3565b820191906000526020600020905b81548152906001019060200180831161148657829003601f168201915b505050505081526020016003820180546114bc90612247565b80601f01602080910402602001604051908101604052809291908181526020018280546114e890612247565b80156115355780601f1061150a57610100808354040283529160200191611535565b820191906000526020600020905b81548152906001019060200180831161151857829003601f168201915b505050918352505060048201546020820152600582015460408201526006820154606082015260078201546080820152600882015460ff808216151560a084015260c09092019161010090910416600381111561159457611594611e60565b60038111156115a5576115a5611e60565b81526020016009820180546115b990612247565b80601f01602080910402602001604051908101604052809291908181526020018280546115e590612247565b80156116325780601f1061160757610100808354040283529160200191611632565b820191906000526020600020905b81548152906001019060200180831161161557829003601f168201915b5050505050815250509050919050565b61164a611b2d565b6000828152600360205260409020805483146116a25760405162461bcd60e51b8152602060048201526017602482015276141c9bdc1bdcd85b08191bd95cc81b9bdd08195e1a5cdd604a1b60448201526064016106e0565b80600601544210156116eb5760405162461bcd60e51b8152602060048201526012602482015271159bdd1a5b99c81b9bdd081cdd185c9d195960721b60448201526064016106e0565b806007015442111561172e5760405162461bcd60e51b815260206004820152600c60248201526b159bdd1a5b99c8195b99195960a21b60448201526064016106e0565b600881015460ff161561177f5760405162461bcd60e51b8152602060048201526019602482015278141c9bdc1bdcd85b08185b1c9958591e48195e1958dd5d1959603a1b60448201526064016106e0565b600083815260046020908152604080832033845290915290205460ff16156117d95760405162461bcd60e51b815260206004820152600d60248201526c105b1c9958591e481d9bdd1959609a1b60448201526064016106e0565b600254604051635da6a21b60e11b815233600482015260009161010090046001600160a01b03169063bb4d443690602401602060405180830381865afa158015611827573d6000803e3d6000fd5b505050506040513d601f19601f8201168201806040525081019061184b91906122aa565b90506000811161188f5760405162461bcd60e51b815260206004820152600f60248201526e2737903b37ba34b733903837bbb2b960891b60448201526064016106e0565b60408051606081018252600180825285158015602080850191825284860187815260008b81526004835287812033825290925295902093518454915161ffff1990921690151561ff0019161761010091151591909102178355925191015561191057808260040160008282546119059190612297565b9091555061192a9050565b808260050160008282546119249190612297565b90915550505b60408051841515815260208101839052339186917fcbdf6214089cba887ecbf35a0b6a734589959c9763342c756bb2a80ca2bc9f6e910160405180910390a3505061197460018055565b5050565b611980611bc3565b62093a808111156119d35760405162461bcd60e51b815260206004820152601860248201527f457865637574696f6e2064656c617920746f6f206c6f6e67000000000000000060448201526064016106e0565b600855565b6119e0611bc3565b6001600160a01b03919091166000908152600560205260409020805460ff1916911515919091179055565b611a13611bc3565b62015180811015611a665760405162461bcd60e51b815260206004820152601760248201527f566f74696e6720706572696f6420746f6f2073686f727400000000000000000060448201526064016106e0565b62278d00811115611ab25760405162461bcd60e51b8152602060048201526016602482015275566f74696e6720706572696f6420746f6f206c6f6e6760501b60448201526064016106e0565b600755565b611abf611bc3565b6001600160a01b038116611b245760405162461bcd60e51b815260206004820152602660248201527f4f776e61626c653a206e6577206f776e657220697320746865207a65726f206160448201526564647265737360d01b60648201526084016106e0565b610a7b81611cb5565b600260015403611b7f5760405162461bcd60e51b815260206004820152601f60248201527f5265656e7472616e637947756172643a207265656e7472616e742063616c6c0060448201526064016106e0565b6002600155565b6000818152600360205260408082209051909183917f712ae1383f79ac853f8d882153778e0260ef8f03b504e2866e0593e04d2b291f9190a25050565b6000546001600160a01b03163314610b3d5760405162461bcd60e51b815260206004820181905260248201527f4f776e61626c653a2063616c6c6572206973206e6f7420746865206f776e657260448201526064016106e0565b611c25611d42565b6002805460ff191690557f5db9ee0a495bf2e6ff9c91a7834c1ba4fdd244a5e8aa4e537bd38aeae4b073aa335b6040516001600160a01b03909116815260200160405180910390a1565b60025460ff1615610b3d5760405162461bcd60e51b815260206004820152601060248201526f14185d5cd8589b194e881c185d5cd95960821b60448201526064016106e0565b600080546001600160a01b038381166001600160a01b0319831681178455604051919092169283917f8be0079c531659141344cd1fd0a4f28419497f9722a3daafe3b4186f6b6457e09190a35050565b611d0d611c6f565b6002805460ff191660011790557f62e78cea01bee320cd4e420270b5ea74000d11b0c9f74754ebdbfc544b05a258611c523390565b60025460ff16610b3d5760405162461bcd60e51b815260206004820152601460248201527314185d5cd8589b194e881b9bdd081c185d5cd95960621b60448201526064016106e0565b6040518061016001604052806000815260200160006001600160a01b0316815260200160608152602001606081526020016000815260200160008152602001600081526020016000815260200160001515815260200160006003811115611df457611df4611e60565b8152602001606081525090565b600060208284031215611e1357600080fd5b5035919050565b6000815180845260005b81811015611e4057602081850181015186830182015201611e24565b506000602082860101526020601f19601f83011685010191505092915050565b634e487b7160e01b600052602160045260246000fd5b60048110611e9457634e487b7160e01b600052602160045260246000fd5b9052565b8b81526001600160a01b038b16602082015261016060408201819052600090611ec38382018d611e1a565b90508281036060840152611ed7818c611e1a565b90508960808401528860a08401528760c08401528660e0840152851515610100840152611f08610120840186611e76565b828103610140840152611f1b8185611e1a565b9e9d5050505050505050505050505050565b80356001600160a01b0381168114611f4457600080fd5b919050565b60008060408385031215611f5c57600080fd5b82359150611f6c60208401611f2d565b90509250929050565b602081526000611f886020830184611e1a565b9392505050565b634e487b7160e01b600052604160045260246000fd5b600067ffffffffffffffff80841115611fc057611fc0611f8f565b604051601f8501601f19908116603f01168101908282118183101715611fe857611fe8611f8f565b8160405280935085815286868601111561200157600080fd5b858560208301376000602087830101525050509392505050565b600082601f83011261202c57600080fd5b611f8883833560208501611fa5565b6000806000806080858703121561205157600080fd5b843567ffffffffffffffff8082111561206957600080fd5b6120758883890161201b565b9550602087013591508082111561208b57600080fd5b6120978883890161201b565b945060408701359150600482106120ad57600080fd5b909250606086013590808211156120c357600080fd5b508501601f810187136120d557600080fd5b6120e487823560208401611fa5565b91505092959194509250565b60208152815160208201526000602083015161211760408401826001600160a01b03169052565b506040830151610160806060850152612134610180850183611e1a565b91506060850151601f19808685030160808701526121528483611e1a565b9350608087015160a087015260a087015160c087015260c087015160e087015260e087015191506101008281880152808801519250506101206121988188018415159052565b87015191506101406121ac87820184611e76565b8701518685039091018387015290506121c58382611e1a565b9695505050505050565b80358015158114611f4457600080fd5b600080604083850312156121f257600080fd5b82359150611f6c602084016121cf565b6000806040838503121561221557600080fd5b61221e83611f2d565b9150611f6c602084016121cf565b60006020828403121561223e57600080fd5b611f8882611f2d565b600181811c9082168061225b57607f821691505b60208210810361227b57634e487b7160e01b600052602260045260246000fd5b50919050565b634e487b7160e01b600052601160045260246000fd5b8082018082111561067e5761067e612281565b6000602082840312156122bc57600080fd5b5051919050565b808202811582820484141761067e5761067e612281565b6000826122f757634e487b7160e01b600052601260045260246000fd5b500490565b60006001820161230e5761230e612281565b5060010190565b601f82111561235f57600081815260208120601f850160051c8101602086101561233c5750805b601f850160051c820191505b8181101561235b57828155600101612348565b5050505b505050565b815167ffffffffffffffff81111561237e5761237e611f8f565b6123928161238c8454612247565b84612315565b602080601f8311600181146123c757600084156123af5750858301515b600019600386901b1c1916600185901b17855561235b565b600085815260208120601f198616915b828110156123f6578886015182559484019460019091019084016123d7565b50858210156124145787850151600019600388901b60f8161c191681555b5050505050600190811b01905550565b6040815260006124376040830185611e1a565b9050611f886020830184611e7656fea2646970667358221220e4c74be5a6b39f656b564973a6fd106876d5fe57e347bbc8d3488279386ad30964736f6c63430008130033",
  "linkReferences": {},
  "deployedLinkReferences": {}
}