{
  "_format": "hh-sol-artifact-1",
  "contractName": "SEVEProtocol",
  "sourceName": "contracts/SEVEProtocol.sol",
  "abi": [
    {
      "inputs": [
        {
          "internalType": "address",
          "name": "_seveToken",
          "type": "address"
        }
      ],
      "stateMutability": "nonpayable",
      "type": "constructor"
    },
    {
      "anonymous": false,
      "inputs": [
        {
          "indexed": true,
          "internalType": "address",
          "name": "agent",
          "type": "address"
        },
        {
          "indexed": false,
          "internalType": "string",
          "name": "capabilities",
          "type": "string"
        },
        {
          "indexed": false,
          "internalType": "bytes32",
          "name": "agentHash",
          "type": "bytes32"
        }
      ],
      "name": "AgentRegistered",
      "type": "event"
    },
    {
      "anonymous": false,
      "inputs": [
        {
          "indexed": true,
          "internalType": "address",
          "name": "agent",
          "type": "address"
        },
        {
          "indexed": false,
          "internalType": "bool",
          "name": "verified",
          "type": "bool"
        }
      ],
      "name": "AgentVerified",
      "type": "event"
    },
    {
      "anonymous": false,
      "inputs": [
        {
          "indexed": true,
          "internalType": "address",
          "name": "buyer",
          "type": "address"
        },
        {
          "indexed": false,
          "internalType": "string",
          "name": "version",
          "type": "string"
        },
        {
          "indexed": false,
          "internalType": "uint256",
          "name": "price",
          "type": "uint256"
        },
        {
          "indexed": false,
          "internalType": "uint256",
          "name": "duration",
          "type": "uint256"
        },
        {
          "indexed": false,
          "internalType": "bytes32",
          "name": "codeHash",
          "type": "bytes32"
        }
      ],
      "name": "LicensePurchased",
      "type": "event"
    },
    {
      "anonymous": false,
      "inputs": [
        {
          "indexed": true,
          "internalType": "address",
          "name": "previousOwner",
          "type": "address"
        },
        {
          "indexed": true,
          "internalType": "address",
          "name": "newOwner",
          "type": "address"
        }
      ],
      "name": "OwnershipTransferred",
      "type": "event"
    },
    {
      "anonymous": false,
      "inputs": [
        {
          "indexed": false,
          "internalType": "address",
          "name": "account",
          "type": "address"
        }
      ],
      "name": "Paused",
      "type": "event"
    },
    {
      "anonymous": false,
      "inputs": [
        {
          "indexed": true,
          "internalType": "address",
          "name": "agent",
          "type": "address"
        },
        {
          "indexed": false,
          "internalType": "uint256",
          "name": "score",
          "type": "uint256"
        }
      ],
      "name": "PerformanceUpdated",
      "type": "event"
    },
    {
      "anonymous": false,
      "inputs": [
        {
          "indexed": false,
          "internalType": "uint256",
          "name": "newFeeRate",
          "type": "uint256"
        }
      ],
      "name": "ProtocolFeeUpdated",
      "type": "event"
    },
    {
      "anonymous": false,
      "inputs": [
        {
          "indexed": false,
          "internalType": "address",
          "name": "account",
          "type": "address"
        }
      ],
      "name": "Unpaused",
      "type": "event"
    },
    {
      "anonymous": false,
      "inputs": [
        {
          "indexed": false,
          "internalType": "string",
          "name": "version",
          "type": "string"
        },
        {
          "indexed": false,
          "internalType": "uint256",
          "name": "price",
          "type": "uint256"
        },
        {
          "indexed": false,
          "internalType": "bytes32",
          "name": "codeHash",
          "type": "bytes32"
        }
      ],
      "name": "VersionAdded",
      "type": "event"
    },
    {
      "inputs": [
        {
          "internalType": "string",
          "name": "version",
          "type": "string"
        },
        {
          "internalType": "uint256",
          "name": "price",
          "type": "uint256"
        },
        {
          "internalType": "bytes32",
          "name": "codeHash",
          "type": "bytes32"
        },
        {
          "internalType": "string",
          "name": "description",
          "type": "string"
        }
      ],
      "name": "addVersion",
      "outputs": [],
      "stateMutability": "nonpayable",
      "type": "function"
    },
    {
      "inputs": [
        {
          "internalType": "address",
          "name": "",
          "type": "address"
        }
      ],
      "name": "agents",
      "outputs": [
        {
          "internalType": "address",
          "name": "agentAddress",
          "type": "address"
        },
        {
          "internalType": "string",
          "name": "capabilities",
          "type": "string"
        },
        {
          "internalType": "uint256",
          "name": "performanceScore",
          "type": "uint256"
        },
        {
          "internalType": "bool",
          "name": "verified",
          "type": "bool"
        },
        {
          "internalType": "uint256",
          "name": "registrationTime",
          "type": "uint256"
        },
        {
          "internalType": "bytes32",
          "name": "agentHash",
          "type": "bytes32"
        },
        {
          "internalType": "string",
          "name": "metadata",
          "type": "string"
        }
      ],
      "stateMutability": "view",
      "type": "function"
    },
    {
      "inputs": [
        {
          "internalType": "address",
          "name": "",
          "type": "address"
        }
      ],
      "name": "authorizedLicensors",
      "outputs": [
        {
          "internalType": "bool",
          "name": "",
          "type": "bool"
        }
      ],
      "stateMutability": "view",
      "type": "function"
    },
    {
      "inputs": [
        {
          "internalType": "address",
          "name": "user",
          "type": "address"
        }
      ],
      "name": "getActiveLicenses",
      "outputs": [
        {
          "components": [
            {
              "internalType": "address",
              "name": "licensee",
              "type": "address"
            },
            {
              "internalType": "string",
              "name": "version",
              "type": "string"
            },
            {
              "internalType": "uint256",
              "name": "duration",
              "type": "uint256"
            },
            {
              "internalType": "uint256",
              "name": "price",
              "type": "uint256"
            },
            {
              "internalType": "bool",
              "name": "active",
              "type": "bool"
            },
            {
              "internalType": "uint256",
              "name": "timestamp",
              "type": "uint256"
            },
            {
              "internalType": "bytes32",
              "name": "codeHash",
              "type": "bytes32"
            },
            {
              "internalType": "string",
              "name": "capabilities",
              "type": "string"
            }
          ],
          "internalType": "struct SEVEProtocol.License[]",
          "name": "",
          "type": "tuple[]"
        }
      ],
      "stateMutability": "view",
      "type": "function"
    },
    {
      "inputs": [
        {
          "internalType": "address",
          "name": "agent",
          "type": "address"
        }
      ],
      "name": "getAgentInfo",
      "outputs": [
        {
          "components": [
            {
              "internalType": "address",
              "name": "agentAddress",
              "type": "address"
            },
            {
              "internalType": "string",
              "name": "capabilities",
              "type": "string"
            },
            {
              "internalType": "uint256",
              "name": "performanceScore",
              "type": "uint256"
            },
            {
              "internalType": "bool",
              "name": "verified",
              "type": "bool"
            },
            {
              "internalType": "uint256",
              "name": "registrationTime",
              "type": "uint256"
            },
            {
              "internalType": "bytes32",
              "name": "agentHash",
              "type": "bytes32"
            },
            {
              "internalType": "string",
              "name": "metadata",
              "type": "string"
            }
          ],
          "internalType": "struct SEVEProtocol.Agent",
          "name": "",
          "type": "tuple"
        }
      ],
      "stateMutability": "view",
      "type": "function"
    },
    {
      "inputs": [
        {
          "internalType": "string",
          "name": "version",
          "type": "string"
        }
      ],
      "name": "getVersionInfo",
      "outputs": [
        {
          "components": [
            {
              "internalType": "uint256",
              "name": "price",
              "type": "uint256"
            },
            {
              "internalType": "bool",
              "name": "available",
              "type": "bool"
            },
            {
              "internalType": "string",
              "name": "description",
              "type": "string"
            },
            {
              "internalType": "bytes32",
              "name": "codeHash",
              "type": "bytes32"
            },
            {
              "internalType": "uint256",
              "name": "timestamp",
              "type": "uint256"
            }
          ],
          "internalType": "struct SEVEProtocol.VersionInfo",
          "name": "",
          "type": "tuple"
        }
      ],
      "stateMutability": "view",
      "type": "function"
    },
    {
      "inputs": [
        {
          "internalType": "address",
          "name": "user",
          "type": "address"
        },
        {
          "internalType": "string",
          "name": "version",
          "type": "string"
        }
      ],
      "name": "hasValidLicense",
      "outputs": [
        {
          "internalType": "bool",
          "name": "",
          "type": "bool"
        }
      ],
      "stateMutability": "view",
      "type": "function"
    },
    {
      "inputs": [
        {
          "internalType": "address",
          "name": "",
          "type": "address"
        },
        {
          "internalType": "uint256",
          "name": "",
          "type": "uint256"
        }
      ],
      "name": "licenses",
      "outputs": [
        {
          "internalType": "address",
          "name": "licensee",
          "type": "address"
        },
        {
          "internalType": "string",
          "name": "version",
          "type": "string"
        },
        {
          "internalType": "uint256",
          "name": "duration",
          "type": "uint256"
        },
        {
          "internalType": "uint256",
          "name": "price",
          "type": "uint256"
        },
        {
          "internalType": "bool",
          "name": "active",
          "type": "bool"
        },
        {
          "internalType": "uint256",
          "name": "timestamp",
          "type": "uint256"
        },
        {
          "internalType": "bytes32",
          "name": "codeHash",
          "type": "bytes32"
        },
        {
          "internalType": "string",
          "name": "capabilities",
          "type": "string"
        }
      ],
      "stateMutability": "view",
      "type": "function"
    },
    {
      "inputs": [],
      "name": "owner",
      "outputs": [
        {
          "internalType": "address",
          "name": "",
          "type": "address"
        }
      ],
      "stateMutability": "view",
      "type": "function"
    },
    {
      "inputs": [],
      "name": "pause",
      "outputs": [],
      "stateMutability": "nonpayable",
      "type": "function"
    },
    {
      "inputs": [],
      "name": "paused",
      "outputs": [
        {
          "internalType": "bool",
          "name": "",
          "type": "bool"
        }
      ],
      "stateMutability": "view",
      "type": "function"
    },
    {
      "inputs": [],
      "name": "protocolFeeRate",
      "outputs": [
        {
          "internalType": "uint256",
          "name": "",
          "type": "uint256"
        }
      ],
      "stateMutability": "view",
      "type": "function"
    },
    {
      "inputs": [
        {
          "internalType": "string",
          "name": "version",
          "type": "string"
        },
        {
          "internalType": "uint256",
          "name": "duration",
          "type": "uint256"
        },
        {
          "internalType": "string",
          "name": "capabilities",
          "type": "string"
        }
      ],
      "name": "purchaseLicense",
      "outputs": [],
      "stateMutability": "nonpayable",
      "type": "function"
    },
    {
      "inputs": [
        {
          "internalType": "string",
          "name": "capabilities",
          "type": "string"
        },
        {
          "internalType": "bytes32",
          "name": "agentHash",
          "type": "bytes32"
        },
        {
          "internalType": "string",
          "name": "metadata",
          "type": "string"
        }
      ],
      "name": "registerAgent",
      "outputs": [],
      "stateMutability": "nonpayable",
      "type": "function"
    },
    {
      "inputs": [
        {
          "internalType": "bytes32",
          "name": "",
          "type": "bytes32"
        }
      ],
      "name": "registeredCodeHashes",
      "outputs": [
        {
          "internalType": "bool",
          "name": "",
          "type": "bool"
        }
      ],
      "stateMutability": "view",
      "type": "function"
    },
    {
      "inputs": [],
      "name": "renounceOwnership",
      "outputs": [],
      "stateMutability": "nonpayable",
      "type": "function"
    },
    {
      "inputs": [
        {
          "internalType": "address",
          "name": "licensor",
          "type": "address"
        },
        {
          "internalType": "bool",
          "name": "authorized",
          "type": "bool"
        }
      ],
      "name": "setAuthorizedLicensor",
      "outputs": [],
      "stateMutability": "nonpayable",
      "type": "function"
    },
    {
      "inputs": [
        {
          "internalType": "uint256",
          "name": "newFeeRate",
          "type": "uint256"
        }
      ],
      "name": "setProtocolFeeRate",
      "outputs": [],
      "stateMutability": "nonpayable",
      "type": "function"
    },
    {
      "inputs": [],
      "name": "seveToken",
      "outputs": [
        {
          "internalType": "contract SEVEToken",
          "name": "",
          "type": "address"
        }
      ],
      "stateMutability": "view",
      "type": "function"
    },
    {
      "inputs": [],
      "name": "totalLicensesSold",
      "outputs": [
        {
          "internalType": "uint256",
          "name": "",
          "type": "uint256"
        }
      ],
      "stateMutability": "view",
      "type": "function"
    },
    {
      "inputs": [],
      "name": "totalRevenue",
      "outputs": [
        {
          "internalType": "uint256",
          "name": "",
          "type": "uint256"
        }
      ],
      "stateMutability": "view",
      "type": "function"
    },
    {
      "inputs": [
        {
          "internalType": "address",
          "name": "newOwner",
          "type": "address"
        }
      ],
      "name": "transferOwnership",
      "outputs": [],
      "stateMutability": "nonpayable",
      "type": "function"
    },
    {
      "inputs": [],
      "name": "unpause",
      "outputs": [],
      "stateMutability": "nonpayable",
      "type": "function"
    },
    {
      "inputs": [
        {
          "internalType": "address",
          "name": "agent",
          "type": "address"
        },
        {
          "internalType": "uint256",
          "name": "score",
          "type": "uint256"
        }
      ],
      "name": "updatePerformance",
      "outputs": [],
      "stateMutability": "nonpayable",
      "type": "function"
    },
    {
      "inputs": [
        {
          "internalType": "address",
          "name": "agent",
          "type": "address"
        },
        {
          "internalType": "bool",
          "name": "verified",
          "type": "bool"
        }
      ],
      "name": "verifyAgent",
      "outputs": [],
      "stateMutability": "nonpayable",
      "type": "function"
    },
    {
      "inputs": [
        {
          "internalType": "string",
          "name": "",
          "type": "string"
        }
      ],
      "name": "versionPricing",
      "outputs": [
        {
          "internalType": "uint256",
          "name": "price",
          "type": "uint256"
        },
        {
          "internalType": "bool",
          "name": "available",
          "type": "bool"
        },
        {
          "internalType": "string",
          "name": "description",
          "type": "string"
        },
        {
          "internalType": "bytes32",
          "name": "codeHash",
          "type": "bytes32"
        },
        {
          "internalType": "uint256",
          "name": "timestamp",
          "type": "uint256"
        }
      ],
      "stateMutability": "view",
      "type": "function"
    },
    {
      "inputs": [],
      "name": "withdrawFees",
      "outputs": [],
      "stateMutability": "nonpayable",
      "type": "function"
    }
  ],
  "bytecode": "0x60806040526064600b553480156200001657600080fd5b5060405162002a8038038062002a808339810160408190526200003991620000e4565b620000443362000094565b60018080556002805460ff19908116909155600880546001600160a01b0319166001600160a01b039490941693909317909255336000908152600660205260409020805490921617905562000116565b600080546001600160a01b038381166001600160a01b0319831681178455604051919092169283917f8be0079c531659141344cd1fd0a4f28419497f9722a3daafe3b4186f6b6457e09190a35050565b600060208284031215620000f757600080fd5b81516001600160a01b03811681146200010f57600080fd5b9392505050565b61295a80620001266000396000f3fe608060405234801561001057600080fd5b50600436106101a95760003560e01c80638456cb59116100f9578063b13aa2d611610097578063edc5947e11610071578063edc5947e1461039a578063f2fde38b146103ba578063fb30f7a9146103cd578063fd66091e146103ed57600080fd5b8063b13aa2d614610375578063bf2d9e0b14610388578063e83bc15a1461039157600080fd5b80639ca0cb85116100d35780639ca0cb8514610319578063a413643b1461033c578063a781469a1461034f578063ad0703e21461036257600080fd5b80638456cb59146102c857806386788853146102d05780638da5cb5b146102f457600080fd5b8063476343ee116101665780636326c737116101405780636326c737146102775780636e622bbf1461029a578063715018a6146102ad5780638151ee1f146102b557600080fd5b8063476343ee1461024d57806358f85880146102555780635c975abb1461026c57600080fd5b806304f59436146101ae5780630be644ee146101d6578063152052b0146101fd5780632add67641461021d57806331b23cd5146102325780633f4ba83a14610245575b600080fd5b6101c16101bc36600461215f565b610413565b60405190151581526020015b60405180910390f35b6101e96101e43660046121ad565b6106e1565b6040516101cd989796959493929190612227565b61021061020b36600461228f565b61086a565b6040516101cd91906122b1565b61023061022b36600461233e565b610a31565b005b61023061024036600461233e565b610aff565b610230610b32565b610230610b44565b61025e600b5481565b6040519081526020016101cd565b60025460ff166101c1565b6101c1610285366004612375565b60076020526000908152604090205460ff1681565b6102306102a83660046121ad565b610c99565b610230610da2565b6102306102c336600461238e565b610db4565b6102306111e1565b6102e36102de3660046123fb565b6111f1565b6040516101cd959493929190612438565b6000546001600160a01b03165b6040516001600160a01b0390911681526020016101cd565b6101c161032736600461228f565b60066020526000908152604090205460ff1681565b61023061034a36600461238e565b6112b7565b61023061035d36600461246d565b6114ed565b600854610301906001600160a01b031681565b610230610383366004612375565b6116cf565b61025e600a5481565b61025e60095481565b6103ad6103a83660046123fb565b611758565b6040516101cd91906124e4565b6102306103c836600461228f565b61187d565b6103e06103db36600461228f565b6118f6565b6040516101cd9190612536565b6104006103fb36600461228f565b611cce565b6040516101cd9796959493929190612612565b6001600160a01b038216600090815260036020908152604080832080548251818502810185019093528083528493849084015b828210156105ee5760008481526020908190206040805161010081019091526008850290910180546001600160a01b03168252600181018054929391929184019161049090612670565b80601f01602080910402602001604051908101604052809291908181526020018280546104bc90612670565b80156105095780601f106104de57610100808354040283529160200191610509565b820191906000526020600020905b8154815290600101906020018083116104ec57829003601f168201915b50505091835250506002820154602082015260038201546040820152600482015460ff161515606082015260058201546080820152600682015460a082015260078201805460c09092019161055d90612670565b80601f016020809104026020016040519081016040528092919081815260200182805461058990612670565b80156105d65780601f106105ab576101008083540402835291602001916105d6565b820191906000526020600020905b8154815290600101906020018083116105b957829003601f168201915b50505050508152505081526020019060010190610446565b50505050905060005b81518110156106d457818181518110610612576106126126aa565b60200260200101516080015180156106545750838051906020012082828151811061063f5761063f6126aa565b60200260200101516020015180519060200120145b80156106b2575081818151811061066d5761066d6126aa565b6020026020010151604001516201518061068791906126d6565b828281518110610699576106996126aa565b602002602001015160a001516106af91906126ed565b42105b156106c2576001925050506106db565b806106cc81612700565b9150506105f7565b5060009150505b92915050565b600360205281600052604060002081815481106106fd57600080fd5b6000918252602090912060089091020180546001820180546001600160a01b03909216945091925061072e90612670565b80601f016020809104026020016040519081016040528092919081815260200182805461075a90612670565b80156107a75780601f1061077c576101008083540402835291602001916107a7565b820191906000526020600020905b81548152906001019060200180831161078a57829003601f168201915b5050505050908060020154908060030154908060040160009054906101000a900460ff16908060050154908060060154908060070180546107e790612670565b80601f016020809104026020016040519081016040528092919081815260200182805461081390612670565b80156108605780601f1061083557610100808354040283529160200191610860565b820191906000526020600020905b81548152906001019060200180831161084357829003601f168201915b5050505050905088565b6040805160e08101825260008082526060602083018190529282018190528282018190526080820181905260a082015260c08101919091526001600160a01b03808316600090815260046020908152604091829020825160e0810190935280549093168252600183018054929392918401916108e590612670565b80601f016020809104026020016040519081016040528092919081815260200182805461091190612670565b801561095e5780601f106109335761010080835404028352916020019161095e565b820191906000526020600020905b81548152906001019060200180831161094157829003601f168201915b505050918352505060028201546020820152600382015460ff1615156040820152600482015460608201526005820154608082015260068201805460a0909201916109a890612670565b80601f01602080910402602001604051908101604052809291908181526020018280546109d490612670565b8015610a215780601f106109f657610100808354040283529160200191610a21565b820191906000526020600020905b815481529060010190602001808311610a0457829003601f168201915b5050505050815250509050919050565b610a39611e2c565b6001600160a01b0382811660009081526004602052604090205416610a9c5760405162461bcd60e51b81526020600482015260146024820152731059d95b9d081b9bdd081c9959da5cdd195c995960621b60448201526064015b60405180910390fd5b6001600160a01b038216600081815260046020908152604091829020600301805460ff191685151590811790915591519182527fb0c56617ec919721f803618b5f53891e275c7aaddbdf3c17c45f3252854fa70b91015b60405180910390a25050565b610b07611e2c565b6001600160a01b03919091166000908152600660205260409020805460ff1916911515919091179055565b610b3a611e2c565b610b42611e86565b565b610b4c611e2c565b6008546040516370a0823160e01b81523060048201526000916001600160a01b0316906370a0823190602401602060405180830381865afa158015610b95573d6000803e3d6000fd5b505050506040513d601f19601f82011682018060405250810190610bb99190612719565b905060008111610c015760405162461bcd60e51b81526020600482015260136024820152724e6f206665657320746f20776974686472617760681b6044820152606401610a93565b6008546001600160a01b031663a9059cbb610c246000546001600160a01b031690565b6040516001600160e01b031960e084901b1681526001600160a01b039091166004820152602481018490526044016020604051808303816000875af1158015610c71573d6000803e3d6000fd5b505050506040513d601f19601f82011682018060405250810190610c959190612732565b5050565b610ca1611e2c565b6001600160a01b03821660009081526004602052604090206003015460ff16610d015760405162461bcd60e51b81526020600482015260126024820152711059d95b9d081b9bdd081d995c9a599a595960721b6044820152606401610a93565b6064811115610d525760405162461bcd60e51b815260206004820152601f60248201527f53636f7265206d757374206265206265747765656e203020616e6420313030006044820152606401610a93565b6001600160a01b03821660008181526004602052604090819020600201839055517f8867389dc1217dc31266587124e2684cf763acfe0b8d061deeef403db9214ed590610af39084815260200190565b610daa611e2c565b610b426000611ed8565b610dbc611f28565b610dc4611f81565b600583604051610dd4919061274f565b9081526040519081900360200190206001015460ff16610e2e5760405162461bcd60e51b815260206004820152601560248201527456657273696f6e206e6f7420617661696c61626c6560581b6044820152606401610a93565b60008211610e7e5760405162461bcd60e51b815260206004820152601f60248201527f4475726174696f6e206d7573742062652067726561746572207468616e2030006044820152606401610a93565b600061016d83600586604051610e94919061274f565b90815260405190819003602001902054610eae91906126d6565b610eb8919061276b565b6008546040516370a0823160e01b815233600482015291925082916001600160a01b03909116906370a0823190602401602060405180830381865afa158015610f05573d6000803e3d6000fd5b505050506040513d601f19601f82011682018060405250810190610f299190612719565b1015610f775760405162461bcd60e51b815260206004820152601860248201527f496e73756666696369656e74205345564520746f6b656e7300000000000000006044820152606401610a93565b6008546040516323b872dd60e01b8152336004820152306024820152604481018390526001600160a01b03909116906323b872dd906064016020604051808303816000875af1158015610fce573d6000803e3d6000fd5b505050506040513d601f19601f82011682018060405250810190610ff29190612732565b506000612710600b548361100691906126d6565b611010919061276b565b9050600061101e828461278d565b90506000604051806101000160405280336001600160a01b0316815260200188815260200187815260200185815260200160011515815260200142815260200160058960405161106e919061274f565b90815260408051602092819003830190206003908101548452928201899052336000908152928252822080546001808201835591845292829020845160089094020180546001600160a01b0319166001600160a01b03909416939093178355908301519293508392908201906110e490826127ee565b506040820151600282015560608201516003820155608082015160048201805460ff191691151591909117905560a0820151600582015560c0820151600682015560e0820151600782019061113990826127ee565b5050600980549150600061114c83612700565b919050555083600a600082825461116391906126ed565b92505081905550336001600160a01b03167fad269d1601e13a480c91c515520685ac690c2c1628dd9b9ad08a95528898c43d88868960058c6040516111a8919061274f565b908152604051908190036020018120600301546111c7949392916128ae565b60405180910390a2505050506111dc60018055565b505050565b6111e9611e2c565b610b42611fc7565b8051602081830181018051600582529282019190930120915280546001820154600283018054929360ff9092169261122890612670565b80601f016020809104026020016040519081016040528092919081815260200182805461125490612670565b80156112a15780601f10611276576101008083540402835291602001916112a1565b820191906000526020600020905b81548152906001019060200180831161128457829003601f168201915b5050505050908060030154908060040154905085565b6112bf611f28565b6112c7611f81565b3360009081526004602052604090206003015460ff161561132a5760405162461bcd60e51b815260206004820152601860248201527f4167656e7420616c7265616479207265676973746572656400000000000000006044820152606401610a93565b8161136c5760405162461bcd60e51b8152602060048201526012602482015271092dcecc2d8d2c840c2cecadce840d0c2e6d60731b6044820152606401610a93565b60008281526007602052604090205460ff16156113cb5760405162461bcd60e51b815260206004820152601d60248201527f4167656e74206861736820616c726561647920726567697374657265640000006044820152606401610a93565b6040805160e08101825233808252602080830187815260008486018190526060850181905242608086015260a0850188905260c085018790529283526004909152929020815181546001600160a01b0319166001600160a01b03909116178155915190918291600182019061144090826127ee565b5060408201516002820155606082015160038201805460ff19169115159190911790556080820151600482015560a0820151600582015560c0820151600682019061148b90826127ee565b50505060008381526007602052604090819020805460ff191660011790555133907f8eaa3502703c7da17066b3a473a66f5aa7a47821acd5b8ea86816207db42baeb906114db90879087906128dd565b60405180910390a2506111dc60018055565b6114f5611e2c565b600083116115455760405162461bcd60e51b815260206004820152601c60248201527f5072696365206d7573742062652067726561746572207468616e2030000000006044820152606401610a93565b816115865760405162461bcd60e51b8152602060048201526011602482015270092dcecc2d8d2c840c6dec8ca40d0c2e6d607b1b6044820152606401610a93565b60008281526007602052604090205460ff16156115e55760405162461bcd60e51b815260206004820152601c60248201527f436f6465206861736820616c72656164792072656769737465726564000000006044820152606401610a93565b6040518060a001604052808481526020016001151581526020018281526020018381526020014281525060058560405161161f919061274f565b9081526040805160209281900383019020835181559183015160018301805460ff1916911515919091179055820151600282019061165d90826127ee565b506060820151600382015560809091015160049091015560008281526007602052604090819020805460ff19166001179055517f902f6f510d830db417382cd0a5ae038bfe40f295d202a2da3053897c664f18d4906116c1908690869086906128ff565b60405180910390a150505050565b6116d7611e2c565b6103e881111561171d5760405162461bcd60e51b815260206004820152601160248201527008ccaca40e4c2e8ca40e8dede40d0d2ced607b1b6044820152606401610a93565b600b8190556040518181527fd10d75876659a287a59a6ccfa2e3fff42f84d94b542837acd30bc184d562de409060200160405180910390a150565b61178f6040518060a00160405280600081526020016000151581526020016060815260200160008019168152602001600081525090565b60058260405161179f919061274f565b90815260408051918290036020908101832060a08401835280548452600181015460ff1615159184019190915260028101805491928401916117e090612670565b80601f016020809104026020016040519081016040528092919081815260200182805461180c90612670565b80156118595780601f1061182e57610100808354040283529160200191611859565b820191906000526020600020905b81548152906001019060200180831161183c57829003601f168201915b50505050508152602001600382015481526020016004820154815250509050919050565b611885611e2c565b6001600160a01b0381166118ea5760405162461bcd60e51b815260206004820152602660248201527f4f776e61626c653a206e6577206f776e657220697320746865207a65726f206160448201526564647265737360d01b6064820152608401610a93565b6118f381611ed8565b50565b6001600160a01b0381166000908152600360209081526040808320805482518185028101850190935280835260609493849084015b82821015611ad35760008481526020908190206040805161010081019091526008850290910180546001600160a01b03168252600181018054929391929184019161197590612670565b80601f01602080910402602001604051908101604052809291908181526020018280546119a190612670565b80156119ee5780601f106119c3576101008083540402835291602001916119ee565b820191906000526020600020905b8154815290600101906020018083116119d157829003601f168201915b50505091835250506002820154602082015260038201546040820152600482015460ff161515606082015260058201546080820152600682015460a082015260078201805460c090920191611a4290612670565b80601f0160208091040260200160405190810160405280929190818152602001828054611a6e90612670565b8015611abb5780601f10611a9057610100808354040283529160200191611abb565b820191906000526020600020905b815481529060010190602001808311611a9e57829003601f168201915b5050505050815250508152602001906001019061192b565b5050505090506000815167ffffffffffffffff811115611af557611af56120bc565b604051908082528060200260200182016040528015611b2e57816020015b611b1b61204d565b815260200190600190039081611b135790505b5090506000805b8351811015611c1757838181518110611b5057611b506126aa565b6020026020010151608001518015611bba5750838181518110611b7557611b756126aa565b60200260200101516040015162015180611b8f91906126d6565b848281518110611ba157611ba16126aa565b602002602001015160a00151611bb791906126ed565b42105b15611c0557838181518110611bd157611bd16126aa565b6020026020010151838381518110611beb57611beb6126aa565b60200260200101819052508180611c0190612700565b9250505b80611c0f81612700565b915050611b35565b5060008167ffffffffffffffff811115611c3357611c336120bc565b604051908082528060200260200182016040528015611c6c57816020015b611c5961204d565b815260200190600190039081611c515790505b50905060005b82811015611cc457838181518110611c8c57611c8c6126aa565b6020026020010151828281518110611ca657611ca66126aa565b60200260200101819052508080611cbc90612700565b915050611c72565b5095945050505050565b600460205260009081526040902080546001820180546001600160a01b039092169291611cfa90612670565b80601f0160208091040260200160405190810160405280929190818152602001828054611d2690612670565b8015611d735780601f10611d4857610100808354040283529160200191611d73565b820191906000526020600020905b815481529060010190602001808311611d5657829003601f168201915b50505060028401546003850154600486015460058701546006880180549798949760ff90941696509194509291611da990612670565b80601f0160208091040260200160405190810160405280929190818152602001828054611dd590612670565b8015611e225780601f10611df757610100808354040283529160200191611e22565b820191906000526020600020905b815481529060010190602001808311611e0557829003601f168201915b5050505050905087565b6000546001600160a01b03163314610b425760405162461bcd60e51b815260206004820181905260248201527f4f776e61626c653a2063616c6c6572206973206e6f7420746865206f776e65726044820152606401610a93565b611e8e612004565b6002805460ff191690557f5db9ee0a495bf2e6ff9c91a7834c1ba4fdd244a5e8aa4e537bd38aeae4b073aa335b6040516001600160a01b03909116815260200160405180910390a1565b600080546001600160a01b038381166001600160a01b0319831681178455604051919092169283917f8be0079c531659141344cd1fd0a4f28419497f9722a3daafe3b4186f6b6457e09190a35050565b600260015403611f7a5760405162461bcd60e51b815260206004820152601f60248201527f5265656e7472616e637947756172643a207265656e7472616e742063616c6c006044820152606401610a93565b6002600155565b60025460ff1615610b425760405162461bcd60e51b815260206004820152601060248201526f14185d5cd8589b194e881c185d5cd95960821b6044820152606401610a93565b611fcf611f81565b6002805460ff191660011790557f62e78cea01bee320cd4e420270b5ea74000d11b0c9f74754ebdbfc544b05a258611ebb3390565b60025460ff16610b425760405162461bcd60e51b815260206004820152601460248201527314185d5cd8589b194e881b9bdd081c185d5cd95960621b6044820152606401610a93565b60405180610100016040528060006001600160a01b031681526020016060815260200160008152602001600081526020016000151581526020016000815260200160008019168152602001606081525090565b80356001600160a01b03811681146120b757600080fd5b919050565b634e487b7160e01b600052604160045260246000fd5b600082601f8301126120e357600080fd5b813567ffffffffffffffff808211156120fe576120fe6120bc565b604051601f8301601f19908116603f01168101908282118183101715612126576121266120bc565b8160405283815286602085880101111561213f57600080fd5b836020870160208301376000602085830101528094505050505092915050565b6000806040838503121561217257600080fd5b61217b836120a0565b9150602083013567ffffffffffffffff81111561219757600080fd5b6121a3858286016120d2565b9150509250929050565b600080604083850312156121c057600080fd5b6121c9836120a0565b946020939093013593505050565b60005b838110156121f25781810151838201526020016121da565b50506000910152565b600081518084526122138160208601602086016121d7565b601f01601f19169290920160200192915050565b6001600160a01b03891681526101006020820181905260009061224c8382018b6121fb565b905088604084015287606084015286151560808401528560a08401528460c084015282810360e084015261228081856121fb565b9b9a5050505050505050505050565b6000602082840312156122a157600080fd5b6122aa826120a0565b9392505050565b602080825282516001600160a01b03168282015282015160e060408301526000906122e06101008401826121fb565b905060408401516060840152606084015115156080840152608084015160a084015260a084015160c084015260c0840151601f198483030160e085015261232782826121fb565b95945050505050565b80151581146118f357600080fd5b6000806040838503121561235157600080fd5b61235a836120a0565b9150602083013561236a81612330565b809150509250929050565b60006020828403121561238757600080fd5b5035919050565b6000806000606084860312156123a357600080fd5b833567ffffffffffffffff808211156123bb57600080fd5b6123c7878388016120d2565b94506020860135935060408601359150808211156123e457600080fd5b506123f1868287016120d2565b9150509250925092565b60006020828403121561240d57600080fd5b813567ffffffffffffffff81111561242457600080fd5b612430848285016120d2565b949350505050565b858152841515602082015260a06040820152600061245960a08301866121fb565b606083019490945250608001529392505050565b6000806000806080858703121561248357600080fd5b843567ffffffffffffffff8082111561249b57600080fd5b6124a7888389016120d2565b9550602087013594506040870135935060608701359150808211156124cb57600080fd5b506124d8878288016120d2565b91505092959194509250565b60208152815160208201526020820151151560408201526000604083015160a0606084015261251660c08401826121fb565b905060608401516080840152608084015160a08401528091505092915050565b60006020808301818452808551808352604092508286019150828160051b87010184880160005b8381101561260457888303603f19018552815180516001600160a01b031684528781015161010089860181905290612597828701826121fb565b915050878201518886015260608083015181870152506080808301516125c08288018215159052565b505060a0828101519086015260c0808301519086015260e091820151858203928601929092526125f081836121fb565b96890196945050509086019060010161255d565b509098975050505050505050565b6001600160a01b038816815260e060208201819052600090612636908301896121fb565b87604084015286151560608401528560808401528460a084015282810360c084015261266281856121fb565b9a9950505050505050505050565b600181811c9082168061268457607f821691505b6020821081036126a457634e487b7160e01b600052602260045260246000fd5b50919050565b634e487b7160e01b600052603260045260246000fd5b634e487b7160e01b600052601160045260246000fd5b80820281158282048414176106db576106db6126c0565b808201808211156106db576106db6126c0565b600060018201612712576127126126c0565b5060010190565b60006020828403121561272b57600080fd5b5051919050565b60006020828403121561274457600080fd5b81516122aa81612330565b600082516127618184602087016121d7565b9190910192915050565b60008261278857634e487b7160e01b600052601260045260246000fd5b500490565b818103818111156106db576106db6126c0565b601f8211156111dc57600081815260208120601f850160051c810160208610156127c75750805b601f850160051c820191505b818110156127e6578281556001016127d3565b505050505050565b815167ffffffffffffffff811115612808576128086120bc565b61281c816128168454612670565b846127a0565b602080601f83116001811461285157600084156128395750858301515b600019600386901b1c1916600185901b1785556127e6565b600085815260208120601f198616915b8281101561288057888601518255948401946001909101908401612861565b508582101561289e5787850151600019600388901b60f8161c191681555b5050505050600190811b01905550565b6080815260006128c160808301876121fb565b6020830195909552506040810192909252606090910152919050565b6040815260006128f060408301856121fb565b90508260208301529392505050565b60608152600061291260608301866121fb565b6020830194909452506040015291905056fea2646970667358221220d7a46034df54b3cc83a13b896d69a2fccf3f0d31a0ef601c880fd28993abaf1564736f6c63430008130033",
  "linkReferences": {},
  "deployedLinkReferences": {}
}